{
  "contractName": "Contract",
  "abi": [
    {
      "constant": true,
      "inputs": [
        {
          "name": "",
          "type": "uint256"
        }
      ],
      "name": "contracts_details",
      "outputs": [
        {
          "name": "contract_id",
          "type": "uint256"
        },
        {
          "name": "currency",
          "type": "string"
        },
        {
          "name": "payment_rate",
          "type": "int256"
        },
        {
          "name": "payment_frequency",
          "type": "string"
        },
        {
          "name": "payment_due",
          "type": "string"
        },
        {
          "name": "employer_id",
          "type": "uint256"
        },
        {
          "name": "contractor_id",
          "type": "uint256"
        },
        {
          "name": "proposal_id",
          "type": "int256"
        }
      ],
      "payable": false,
      "stateMutability": "view",
      "type": "function",
      "signature": "0x1c87fb21"
    },
    {
      "constant": true,
      "inputs": [
        {
          "name": "",
          "type": "uint256"
        }
      ],
      "name": "contracts",
      "outputs": [
        {
          "name": "contract_id",
          "type": "uint256"
        },
        {
          "name": "contract_type",
          "type": "string"
        },
        {
          "name": "contract_name",
          "type": "string"
        },
        {
          "name": "job_title",
          "type": "string"
        },
        {
          "name": "status",
          "type": "string"
        },
        {
          "name": "scope_of_work",
          "type": "string"
        },
        {
          "name": "start_date",
          "type": "string"
        },
        {
          "name": "end_date",
          "type": "string"
        }
      ],
      "payable": false,
      "stateMutability": "view",
      "type": "function",
      "signature": "0x474da79a"
    },
    {
      "constant": true,
      "inputs": [],
      "name": "contractCount",
      "outputs": [
        {
          "name": "",
          "type": "uint256"
        }
      ],
      "payable": false,
      "stateMutability": "view",
      "type": "function",
      "signature": "0x8736381a"
    },
    {
      "inputs": [],
      "payable": false,
      "stateMutability": "nonpayable",
      "type": "constructor",
      "signature": "constructor"
    },
    {
      "payable": true,
      "stateMutability": "payable",
      "type": "fallback"
    },
    {
      "anonymous": false,
      "inputs": [
        {
          "indexed": false,
          "name": "contract_id",
          "type": "uint256"
        }
      ],
      "name": "ContractCompleted",
      "type": "event",
      "signature": "0x6aafa2babf7b7b7142ff5c7ff71f2b5f78e2243167a26d6b8a7f70936e76923e"
    },
    {
      "anonymous": false,
      "inputs": [
        {
          "indexed": false,
          "name": "contract_id",
          "type": "uint256"
        },
        {
          "indexed": false,
          "name": "contract_type",
          "type": "string"
        },
        {
          "indexed": false,
          "name": "contract_name",
          "type": "string"
        },
        {
          "indexed": false,
          "name": "job_title",
          "type": "string"
        },
        {
          "indexed": false,
          "name": "status",
          "type": "string"
        },
        {
          "indexed": false,
          "name": "scope_of_work",
          "type": "string"
        },
        {
          "indexed": false,
          "name": "start_date",
          "type": "string"
        },
        {
          "indexed": false,
          "name": "end_date",
          "type": "string"
        }
      ],
      "name": "ContractCreated",
      "type": "event",
      "signature": "0x885fcc95c75581ffe21d0835a75217dbc27eeac68b459842550369ce95abae47"
    },
    {
      "anonymous": false,
      "inputs": [
        {
          "indexed": false,
          "name": "contract_id",
          "type": "uint256"
        },
        {
          "indexed": false,
          "name": "currency",
          "type": "string"
        },
        {
          "indexed": false,
          "name": "payment_rate",
          "type": "int256"
        },
        {
          "indexed": false,
          "name": "payment_frequency",
          "type": "string"
        },
        {
          "indexed": false,
          "name": "payment_due",
          "type": "string"
        },
        {
          "indexed": false,
          "name": "employer_id",
          "type": "uint256"
        },
        {
          "indexed": false,
          "name": "contractor_id",
          "type": "uint256"
        },
        {
          "indexed": false,
          "name": "proposal_id",
          "type": "int256"
        }
      ],
      "name": "ContractDetailsCreated",
      "type": "event",
      "signature": "0xc1c39a8949cbcdf232e69dcc4e28e89f8b96820d749b2d6ce769e8bea6340245"
    },
    {
      "constant": false,
      "inputs": [
        {
          "name": "contract_type",
          "type": "string"
        },
        {
          "name": "contract_name",
          "type": "string"
        }
      ],
      "name": "createContract",
      "outputs": [],
      "payable": false,
      "stateMutability": "nonpayable",
      "type": "function",
      "signature": "0x631a4231"
    },
    {
      "constant": true,
      "inputs": [],
      "name": "showBalance",
      "outputs": [
        {
          "name": "",
          "type": "uint256"
        }
      ],
      "payable": false,
      "stateMutability": "view",
      "type": "function",
      "signature": "0x81b2d07b"
    }
  ],
  "bytecode": "0x6080604052600080553480156200001557600080fd5b506200009b6040805190810160405280600a81526020017f436f6e74726163746f72000000000000000000000000000000000000000000008152506040805190810160405280600d81526020017f5465737420436f6e747261637400000000000000000000000000000000000000815250620000a1640100000000026401000000009004565b62000623565b600080546001019055620000b4620004f2565b620000be62000538565b600080548084526020808501878152604080870188905280518084018252858152606080890191909152815180850183528681526080808a01919091528251808601845287815260a0808b01919091528351808701855288815260c0808c01919091528451808801865289815260e0808d0191909152888b52855180890187528a81528b89015260018b87018190528651808a0188528b8152958c0195909552855180890187528a8152938b0193909352908901839052880182905287018190529385528383529093208551815592518051869493620001a4939085019201906200057e565b5060408201518051620001c29160028401916020909101906200057e565b5060608201518051620001e09160038401916020909101906200057e565b5060808201518051620001fe9160048401916020909101906200057e565b5060a082015180516200021c9160058401916020909101906200057e565b5060c082015180516200023a9160068401916020909101906200057e565b5060e08201518051620002589160078401916020909101906200057e565b50506000805481526002602090815260409091208351815581840151805185945091926200028f926001850192909101906200057e565b506040820151600282015560608201518051620002b79160038401916020909101906200057e565b5060808201518051620002d59160048401916020909101906200057e565b5060a0820151816005015560c0820151816006015560e082015181600701559050507f885fcc95c75581ffe21d0835a75217dbc27eeac68b459842550369ce95abae476000548585604051808481526020018060200180602001806020018060200180602001806020018060200188810388528a818151815260200191508051906020019080838360005b838110156200037a57818101518382015260200162000360565b50505050905090810190601f168015620003a85780820380516001836020036101000a031916815260200191505b5088810387528951815289516020918201918b019080838360005b83811015620003dd578181015183820152602001620003c3565b50505050905090810190601f1680156200040b5780820380516001836020036101000a031916815260200191505b508881038652600081526020016020018881038552600081526020016020018881038452600081526020016020018881038352600081526020016020018881038252600081526020016020019a505050505050505050505060405180910390a16000805460408051918252600182820181905260a0830181905260c0830181905260e08301526101006020830181905282018390526101406060830181905282018390526101806080830181905282019290925290517fc1c39a8949cbcdf232e69dcc4e28e89f8b96820d749b2d6ce769e8bea6340245918190036101c00190a150505050565b6101006040519081016040528060008152602001606081526020016060815260200160608152602001606081526020016060815260200160608152602001606081525090565b6101006040519081016040528060008152602001606081526020016000815260200160608152602001606081526020016000815260200160008152602001600081525090565b828054600181600116156101000203166002900490600052602060002090601f016020900481019282601f10620005c157805160ff1916838001178555620005f1565b82800160010185558215620005f1579182015b82811115620005f1578251825591602001919060010190620005d4565b50620005ff92915062000603565b5090565b6200062091905b80821115620005ff57600081556001016200060a565b90565b6111fb80620006336000396000f3fe60806040526004361061006c5763ffffffff7c01000000000000000000000000000000000000000000000000000000006000350416631c87fb21811461006e578063474da79a146101ff578063631a42311461050f57806381b2d07b146106495780638736381a14610670575b005b34801561007a57600080fd5b506100986004803603602081101561009157600080fd5b5035610685565b6040518089815260200180602001888152602001806020018060200187815260200186815260200185815260200184810384528b818151815260200191508051906020019080838360005b838110156100fb5781810151838201526020016100e3565b50505050905090810190601f1680156101285780820380516001836020036101000a031916815260200191505b5084810383528951815289516020918201918b019080838360005b8381101561015b578181015183820152602001610143565b50505050905090810190601f1680156101885780820380516001836020036101000a031916815260200191505b5084810382528851815288516020918201918a019080838360005b838110156101bb5781810151838201526020016101a3565b50505050905090810190601f1680156101e85780820380516001836020036101000a031916815260200191505b509b50505050505050505050505060405180910390f35b34801561020b57600080fd5b506102296004803603602081101561022257600080fd5b5035610864565b604051808981526020018060200180602001806020018060200180602001806020018060200188810388528f818151815260200191508051906020019080838360005b8381101561028457818101518382015260200161026c565b50505050905090810190601f1680156102b15780820380516001836020036101000a031916815260200191505b5088810387528e818151815260200191508051906020019080838360005b838110156102e75781810151838201526020016102cf565b50505050905090810190601f1680156103145780820380516001836020036101000a031916815260200191505b5088810386528d5181528d516020918201918f019080838360005b8381101561034757818101518382015260200161032f565b50505050905090810190601f1680156103745780820380516001836020036101000a031916815260200191505b5088810385528c5181528c516020918201918e019080838360005b838110156103a757818101518382015260200161038f565b50505050905090810190601f1680156103d45780820380516001836020036101000a031916815260200191505b5088810384528b5181528b516020918201918d019080838360005b838110156104075781810151838201526020016103ef565b50505050905090810190601f1680156104345780820380516001836020036101000a031916815260200191505b5088810383528a5181528a516020918201918c019080838360005b8381101561046757818101518382015260200161044f565b50505050905090810190601f1680156104945780820380516001836020036101000a031916815260200191505b5088810382528951815289516020918201918b019080838360005b838110156104c75781810151838201526020016104af565b50505050905090810190601f1680156104f45780820380516001836020036101000a031916815260200191505b509f5050505050505050505050505050505060405180910390f35b34801561051b57600080fd5b5061006c6004803603604081101561053257600080fd5b81019060208101813564010000000081111561054d57600080fd5b82018360208201111561055f57600080fd5b8035906020019184600183028401116401000000008311171561058157600080fd5b91908080601f01602080910402602001604051908101604052809392919081815260200183838082843760009201919091525092959493602081019350359150506401000000008111156105d457600080fd5b8201836020820111156105e657600080fd5b8035906020019184600183028401116401000000008311171561060857600080fd5b91908080601f016020809104026020016040519081016040528093929190818152602001838380828437600092019190915250929550610c6c945050505050565b34801561065557600080fd5b5061065e61109f565b60408051918252519081900360200190f35b34801561067c57600080fd5b5061065e6110a5565b60026020818152600092835260409283902080546001808301805487519281161561010002600019011695909504601f81018590048502820185019096528581529094919390929091908301828280156107205780601f106106f557610100808354040283529160200191610720565b820191906000526020600020905b81548152906001019060200180831161070357829003601f168201915b505050506002838101546003850180546040805160206001841615610100026000190190931695909504601f8101839004830286018301909152808552959692959294509091908301828280156107b85780601f1061078d576101008083540402835291602001916107b8565b820191906000526020600020905b81548152906001019060200180831161079b57829003601f168201915b5050505060048301805460408051602060026001851615610100026000190190941693909304601f81018490048402820184019092528181529495949350908301828280156108485780601f1061081d57610100808354040283529160200191610848565b820191906000526020600020905b81548152906001019060200180831161082b57829003601f168201915b5050505050908060050154908060060154908060070154905088565b600160208181526000928352604092839020805481840180548651600296821615610100026000190190911695909504601f810185900485028601850190965285855290949193929091908301828280156109005780601f106108d557610100808354040283529160200191610900565b820191906000526020600020905b8154815290600101906020018083116108e357829003601f168201915b50505060028085018054604080516020601f60001961010060018716150201909416959095049283018590048502810185019091528181529596959450909250908301828280156109925780601f1061096757610100808354040283529160200191610992565b820191906000526020600020905b81548152906001019060200180831161097557829003601f168201915b5050505060038301805460408051602060026001851615610100026000190190941693909304601f8101849004840282018401909252818152949594935090830182828015610a225780601f106109f757610100808354040283529160200191610a22565b820191906000526020600020905b815481529060010190602001808311610a0557829003601f168201915b5050505060048301805460408051602060026001851615610100026000190190941693909304601f8101849004840282018401909252818152949594935090830182828015610ab25780601f10610a8757610100808354040283529160200191610ab2565b820191906000526020600020905b815481529060010190602001808311610a9557829003601f168201915b5050505060058301805460408051602060026001851615610100026000190190941693909304601f8101849004840282018401909252818152949594935090830182828015610b425780601f10610b1757610100808354040283529160200191610b42565b820191906000526020600020905b815481529060010190602001808311610b2557829003601f168201915b5050505060068301805460408051602060026001851615610100026000190190941693909304601f8101849004840282018401909252818152949594935090830182828015610bd25780601f10610ba757610100808354040283529160200191610bd2565b820191906000526020600020905b815481529060010190602001808311610bb557829003601f168201915b5050505060078301805460408051602060026001851615610100026000190190941693909304601f8101849004840282018401909252818152949594935090830182828015610c625780601f10610c3757610100808354040283529160200191610c62565b820191906000526020600020905b815481529060010190602001808311610c4557829003601f168201915b5050505050905088565b600080546001019055610c7d6110ab565b610c856110f1565b600080548084526020808501878152604080870188905280518084018252858152606080890191909152815180850183528681526080808a01919091528251808601845287815260a0808b01919091528351808701855288815260c0808c01919091528451808801865289815260e0808d0191909152888b52855180890187528a81528b89015260018b87018190528651808a0188528b8152958c0195909552855180890187528a8152938b0193909352908901839052880182905287018190529385528383529093208551815592518051869493610d6993908501920190611137565b5060408201518051610d85916002840191602090910190611137565b5060608201518051610da1916003840191602090910190611137565b5060808201518051610dbd916004840191602090910190611137565b5060a08201518051610dd9916005840191602090910190611137565b5060c08201518051610df5916006840191602090910190611137565b5060e08201518051610e11916007840191602090910190611137565b5050600080548152600260209081526040909120835181558184015180518594509192610e4692600185019290910190611137565b506040820151600282015560608201518051610e6c916003840191602090910190611137565b5060808201518051610e88916004840191602090910190611137565b5060a0820151816005015560c0820151816006015560e082015181600701559050507f885fcc95c75581ffe21d0835a75217dbc27eeac68b459842550369ce95abae476000548585604051808481526020018060200180602001806020018060200180602001806020018060200188810388528a818151815260200191508051906020019080838360005b83811015610f2b578181015183820152602001610f13565b50505050905090810190601f168015610f585780820380516001836020036101000a031916815260200191505b5088810387528951815289516020918201918b019080838360005b83811015610f8b578181015183820152602001610f73565b50505050905090810190601f168015610fb85780820380516001836020036101000a031916815260200191505b508881038652600081526020016020018881038552600081526020016020018881038452600081526020016020018881038352600081526020016020018881038252600081526020016020019a505050505050505050505060405180910390a16000805460408051918252600182820181905260a0830181905260c0830181905260e08301526101006020830181905282018390526101406060830181905282018390526101806080830181905282019290925290517fc1c39a8949cbcdf232e69dcc4e28e89f8b96820d749b2d6ce769e8bea6340245918190036101c00190a150505050565b30315b90565b60005481565b6101006040519081016040528060008152602001606081526020016060815260200160608152602001606081526020016060815260200160608152602001606081525090565b6101006040519081016040528060008152602001606081526020016000815260200160608152602001606081526020016000815260200160008152602001600081525090565b828054600181600116156101000203166002900490600052602060002090601f016020900481019282601f1061117857805160ff19168380011785556111a5565b828001600101855582156111a5579182015b828111156111a557825182559160200191906001019061118a565b506111b19291506111b5565b5090565b6110a291905b808211156111b157600081556001016111bb56fea165627a7a72305820278bb471e7aed005f3e34dd3ee3690ad0086500f14a926f575d8f39db2fd3dc10029",
  "source": "// SPDX-License-Identifier: MIT\r\npragma solidity >=0.4.22 <0.9.0;\r\n\r\ncontract Contract {\r\n    // el keyword public lo que hace es que nos deja leer contractCount como si fuera el llamado de una funcion\r\n    uint256 public contractCount = 0;\r\n\r\n    struct Contract {\r\n        uint256 contract_id;\r\n        string contract_type;\r\n        string contract_name;\r\n        string job_title;\r\n        string status;\r\n        string scope_of_work;\r\n        string start_date;\r\n        string end_date;\r\n    }\r\n\r\n    struct ContractDetails {\r\n        uint256 contract_id;\r\n        string currency;\r\n        int256 payment_rate;\r\n        string payment_frequency;\r\n        string payment_due;\r\n        uint256 employer_id;\r\n        uint256 contractor_id;\r\n        int256 proposal_id;\r\n    }\r\n\r\n    event ContractCompleted(uint256 contract_id);\r\n\r\n    // creamos la estructura de datos para guardar nuestros tasks, este funciona como hash map\r\n    mapping(uint256 => Contract) public contracts;\r\n    mapping(uint256 => ContractDetails) public contracts_details;\r\n\r\n    event ContractCreated(\r\n        uint256 contract_id,\r\n        string contract_type,\r\n        string contract_name,\r\n        string job_title,\r\n        string status,\r\n        string scope_of_work,\r\n        string start_date,\r\n        string end_date\r\n      );\r\n\r\n    event ContractDetailsCreated(\r\n        uint256 contract_id,\r\n        string currency,\r\n        int256 payment_rate,\r\n        string payment_frequency,\r\n        string payment_due,\r\n        uint256 employer_id,\r\n        uint256 contractor_id,\r\n        int256 proposal_id\r\n    );\r\n\r\n    constructor() public {\r\n        createContract(\"Contractor\", \"Test Contract\");\r\n    }\r\n\r\n    // funcion para guardar tasks dentro del mapping\r\n    function createContract(\r\n        string memory contract_type,\r\n        string memory contract_name\r\n    ) public {\r\n        contractCount++;\r\n        Contract memory contractInfo;\r\n        ContractDetails memory contractDetails;\r\n\r\n        contractInfo.contract_id = contractCount;\r\n        contractInfo.contract_type = contract_type;\r\n        contractInfo.contract_name = contract_name;\r\n        contractInfo.job_title = \"\";\r\n        contractInfo.status = \"\";\r\n        contractInfo.scope_of_work = \"\";\r\n        contractInfo.start_date = \"\";\r\n        contractInfo.end_date = \"\";\r\n\r\n        contractDetails.contract_id = contractCount;\r\n        contractDetails.currency = \"\";\r\n        contractDetails.payment_rate = 1;\r\n        contractDetails.payment_frequency = \"\";\r\n        contractDetails.payment_due = \"\";\r\n        contractDetails.employer_id = 1;\r\n        contractDetails.contractor_id = 1;\r\n        contractDetails.proposal_id = 1;\r\n\r\n        contracts[contractCount] = contractInfo;\r\n        contracts_details[contractCount]= contractDetails;\r\n        emit ContractCreated(contractCount, contract_type, contract_name, \"\" ,\"\",\"\",\"\",\"\");\r\n        emit ContractDetailsCreated(contractCount, \"\", 1, \"\" ,\"\",1,1,1);\r\n    }\r\n\r\n    // funcion para para marcar como completa una tarea\r\n    // function markCompleted(uint256 _id) public {\r\n    //   Contract memory _task = tasks[_id];\r\n    //   _task.completed = !_task.completed;\r\n    //   tasks[_id] = _task;\r\n    //   emit ContractCompleted(_id, _task.completed);\r\n    // }\r\n\r\n    // funcion para enviar ether del contrato hacia una direccion\r\n    // function sendEther(address payable recipient, uint reward) external {\r\n    //   uint money = reward * 1 ether;\r\n    //   recipient.transfer(money);\r\n    // }\r\n\r\n    // funcion para obtener el valor de la recompensa de cada task\r\n    // function getTaskReward(uint256 _id) external view returns(uint){\r\n    //   Task memory _task = tasks[_id];\r\n    //   return _task.reward;\r\n    // }\r\n\r\n    // funcion para depositar ether en el smart contract\r\n    function() external payable {}\r\n\r\n    // funcion para mostrar cuanto ether tiene este smart contract\r\n    function showBalance() external view returns (uint256) {\r\n        return address(this).balance;\r\n    }\r\n}\r\n",
  "sourcePath": "C:/Users/sesan/Desktop/Blockchain/contracts/Contract.sol",
  "compiler": {
    "name": "solc",
    "version": "0.5.0+commit.1d4f565a.Emscripten.clang"
  },
  "schemaVersion": "3.0.1",
  "updatedAt": "2022-05-14T21:48:12.143Z",
  "devdoc": {
    "methods": {}
  },
  "userdoc": {
    "methods": {}
  }
}