{
  "contractName": "Contract",
  "abi": [
    {
      "constant": true,
      "inputs": [
        {
          "name": "",
          "type": "uint256"
        }
      ],
      "name": "contracts_details",
      "outputs": [
        {
          "name": "contract_id",
          "type": "uint256"
        },
        {
          "name": "currency",
          "type": "string"
        },
        {
          "name": "payment_rate",
          "type": "int256"
        },
        {
          "name": "payment_frequency",
          "type": "string"
        },
        {
          "name": "payment_due",
          "type": "string"
        },
        {
          "name": "employer_id",
          "type": "uint256"
        },
        {
          "name": "contractor_id",
          "type": "uint256"
        },
        {
          "name": "proposal_id",
          "type": "uint256"
        }
      ],
      "payable": false,
      "stateMutability": "view",
      "type": "function",
      "signature": "0x1c87fb21"
    },
    {
      "constant": true,
      "inputs": [
        {
          "name": "",
          "type": "uint256"
        }
      ],
      "name": "contracts",
      "outputs": [
        {
          "name": "contract_id",
          "type": "uint256"
        },
        {
          "name": "contract_type",
          "type": "string"
        },
        {
          "name": "contract_name",
          "type": "string"
        },
        {
          "name": "job_title",
          "type": "string"
        },
        {
          "name": "status",
          "type": "string"
        },
        {
          "name": "scope_of_work",
          "type": "string"
        },
        {
          "name": "start_date",
          "type": "string"
        },
        {
          "name": "end_date",
          "type": "string"
        }
      ],
      "payable": false,
      "stateMutability": "view",
      "type": "function",
      "signature": "0x474da79a"
    },
    {
      "constant": true,
      "inputs": [],
      "name": "contractCount",
      "outputs": [
        {
          "name": "",
          "type": "uint256"
        }
      ],
      "payable": false,
      "stateMutability": "view",
      "type": "function",
      "signature": "0x8736381a"
    },
    {
      "inputs": [],
      "payable": false,
      "stateMutability": "nonpayable",
      "type": "constructor",
      "signature": "constructor"
    },
    {
      "payable": true,
      "stateMutability": "payable",
      "type": "fallback"
    },
    {
      "anonymous": false,
      "inputs": [
        {
          "indexed": false,
          "name": "contract_id",
          "type": "uint256"
        }
      ],
      "name": "ContractCompleted",
      "type": "event",
      "signature": "0x6aafa2babf7b7b7142ff5c7ff71f2b5f78e2243167a26d6b8a7f70936e76923e"
    },
    {
      "anonymous": false,
      "inputs": [
        {
          "indexed": false,
          "name": "contract_id",
          "type": "uint256"
        },
        {
          "indexed": false,
          "name": "contract_type",
          "type": "string"
        },
        {
          "indexed": false,
          "name": "contract_name",
          "type": "string"
        },
        {
          "indexed": false,
          "name": "job_title",
          "type": "string"
        },
        {
          "indexed": false,
          "name": "status",
          "type": "string"
        },
        {
          "indexed": false,
          "name": "scope_of_work",
          "type": "string"
        },
        {
          "indexed": false,
          "name": "start_date",
          "type": "string"
        },
        {
          "indexed": false,
          "name": "end_date",
          "type": "string"
        }
      ],
      "name": "ContractCreated",
      "type": "event",
      "signature": "0x885fcc95c75581ffe21d0835a75217dbc27eeac68b459842550369ce95abae47"
    },
    {
      "anonymous": false,
      "inputs": [
        {
          "indexed": false,
          "name": "contract_id",
          "type": "uint256"
        },
        {
          "indexed": false,
          "name": "currency",
          "type": "string"
        },
        {
          "indexed": false,
          "name": "payment_rate",
          "type": "int256"
        },
        {
          "indexed": false,
          "name": "payment_frequency",
          "type": "string"
        },
        {
          "indexed": false,
          "name": "payment_due",
          "type": "string"
        },
        {
          "indexed": false,
          "name": "employer_id",
          "type": "uint256"
        },
        {
          "indexed": false,
          "name": "contractor_id",
          "type": "uint256"
        },
        {
          "indexed": false,
          "name": "proposal_id",
          "type": "uint256"
        }
      ],
      "name": "ContractDetailsCreated",
      "type": "event",
      "signature": "0x5ee338db78855874b54df61d10b711be7658a86fb1354b2a065dd122d9b1dce6"
    },
    {
      "constant": false,
      "inputs": [
        {
          "name": "contract_type",
          "type": "string"
        },
        {
          "name": "contract_name",
          "type": "string"
        },
        {
          "name": "job_title",
          "type": "string"
        },
        {
          "name": "status",
          "type": "string"
        },
        {
          "name": "scope_of_work",
          "type": "string"
        },
        {
          "name": "start_date",
          "type": "string"
        },
        {
          "name": "end_date",
          "type": "string"
        },
        {
          "name": "currency",
          "type": "string"
        },
        {
          "name": "payment_rate",
          "type": "int256"
        },
        {
          "name": "payment_frequency",
          "type": "string"
        },
        {
          "name": "payment_due",
          "type": "string"
        },
        {
          "name": "employer_id",
          "type": "uint256"
        },
        {
          "name": "contractor_id",
          "type": "uint256"
        },
        {
          "name": "proposal_id",
          "type": "uint256"
        }
      ],
      "name": "createContract",
      "outputs": [],
      "payable": false,
      "stateMutability": "nonpayable",
      "type": "function",
      "signature": "0xf971238c"
    },
    {
      "constant": false,
      "inputs": [
        {
          "name": "contract_type",
          "type": "string"
        },
        {
          "name": "contract_name",
          "type": "string"
        },
        {
          "name": "job_title",
          "type": "string"
        },
        {
          "name": "status",
          "type": "string"
        },
        {
          "name": "scope_of_work",
          "type": "string"
        },
        {
          "name": "start_date",
          "type": "string"
        },
        {
          "name": "end_date",
          "type": "string"
        }
      ],
      "name": "addContract",
      "outputs": [],
      "payable": false,
      "stateMutability": "nonpayable",
      "type": "function",
      "signature": "0x7239d6be"
    },
    {
      "constant": false,
      "inputs": [
        {
          "name": "currency",
          "type": "string"
        },
        {
          "name": "payment_rate",
          "type": "int256"
        },
        {
          "name": "payment_frequency",
          "type": "string"
        },
        {
          "name": "payment_due",
          "type": "string"
        },
        {
          "name": "employer_id",
          "type": "uint256"
        },
        {
          "name": "contractor_id",
          "type": "uint256"
        },
        {
          "name": "proposal_id",
          "type": "uint256"
        }
      ],
      "name": "addContractDetails",
      "outputs": [],
      "payable": false,
      "stateMutability": "nonpayable",
      "type": "function",
      "signature": "0xa1c36202"
    },
    {
      "constant": true,
      "inputs": [],
      "name": "showBalance",
      "outputs": [
        {
          "name": "",
          "type": "uint256"
        }
      ],
      "payable": false,
      "stateMutability": "view",
      "type": "function",
      "signature": "0x81b2d07b"
    }
  ],
  "bytecode": "0x6080604052600080553480156200001557600080fd5b50604080518082018252600a8082527f436f6e74726163746f720000000000000000000000000000000000000000000060208084019190915283518085018552600d81527f5465737420436f6e7472616374000000000000000000000000000000000000008183015284518086018652601181527f4261636b656e6420446576656c6f7065720000000000000000000000000000008184015285518087018752601381527f426f7468207061727469657320616772656564000000000000000000000000008185015286518088018852600b81527f3520656e64706f696e747300000000000000000000000000000000000000000081860152875180890189528681527f31352f30352f3230323200000000000000000000000000000000000000000000818701528851808a018a529687527f32302f30352f3230323200000000000000000000000000000000000000000000878701528851808a018a52600381527f434f500000000000000000000000000000000000000000000000000000000000818801528951808b018b52600781527f4d6f6e74686c7900000000000000000000000000000000000000000000000000818901528a51808c01909b5260028b527f3330000000000000000000000000000000000000000000000000000000000000978b01979097526200022b999597949693959294919391929091621b7740916001808064010000000062000231810204565b62000a7a565b6200024b8e8e8e8e8e8e8e64010000000062000275810204565b6200026587878787878787640100000000620006d1810204565b5050505050505050505050505050565b6000805460010190556200028862000949565b6000805480835260208084018b815260408086018c9052606086018b9052608086018a905260a0860189905260c0860188905260e086018790529284526001808352929093208451815592518051859493620002ea939085019201906200098f565b5060408201518051620003089160028401916020909101906200098f565b5060608201518051620003269160038401916020909101906200098f565b5060808201518051620003449160048401916020909101906200098f565b5060a08201518051620003629160058401916020909101906200098f565b5060c08201518051620003809160068401916020909101906200098f565b5060e082015180516200039e9160078401916020909101906200098f565b509050507f885fcc95c75581ffe21d0835a75217dbc27eeac68b459842550369ce95abae4760005489898989898989604051808981526020018060200180602001806020018060200180602001806020018060200188810388528f818151815260200191508051906020019080838360005b838110156200042a57818101518382015260200162000410565b50505050905090810190601f168015620004585780820380516001836020036101000a031916815260200191505b5088810387528e818151815260200191508051906020019080838360005b838110156200049057818101518382015260200162000476565b50505050905090810190601f168015620004be5780820380516001836020036101000a031916815260200191505b5088810386528d5181528d516020918201918f019080838360005b83811015620004f3578181015183820152602001620004d9565b50505050905090810190601f168015620005215780820380516001836020036101000a031916815260200191505b5088810385528c5181528c516020918201918e019080838360005b83811015620005565781810151838201526020016200053c565b50505050905090810190601f168015620005845780820380516001836020036101000a031916815260200191505b5088810384528b5181528b516020918201918d019080838360005b83811015620005b95781810151838201526020016200059f565b50505050905090810190601f168015620005e75780820380516001836020036101000a031916815260200191505b5088810383528a5181528a516020918201918c019080838360005b838110156200061c57818101518382015260200162000602565b50505050905090810190601f1680156200064a5780820380516001836020036101000a031916815260200191505b5088810382528951815289516020918201918b019080838360005b838110156200067f57818101518382015260200162000665565b50505050905090810190601f168015620006ad5780820380516001836020036101000a031916815260200191505b509f5050505050505050505050505050505060405180910390a15050505050505050565b620006db62000a14565b6000805480835260208084018b815260408086018c9052606086018b9052608086018a905260a0860189905260c0860188905260e086018790529284526002825291909220835181559051805184936200073d9260018501929101906200098f565b506040820151600282015560608201518051620007659160038401916020909101906200098f565b5060808201518051620007839160048401916020909101906200098f565b5060a0820151816005015560c0820151816006015560e082015181600701559050507f5ee338db78855874b54df61d10b711be7658a86fb1354b2a065dd122d9b1dce6600054898989898989896040518089815260200180602001888152602001806020018060200187815260200186815260200185815260200184810384528b818151815260200191508051906020019080838360005b83811015620008355781810151838201526020016200081b565b50505050905090810190601f168015620008635780820380516001836020036101000a031916815260200191505b5084810383528951815289516020918201918b019080838360005b83811015620008985781810151838201526020016200087e565b50505050905090810190601f168015620008c65780820380516001836020036101000a031916815260200191505b5084810382528851815288516020918201918a019080838360005b83811015620008fb578181015183820152602001620008e1565b50505050905090810190601f168015620009295780820380516001836020036101000a031916815260200191505b509b50505050505050505050505060405180910390a15050505050505050565b6101006040519081016040528060008152602001606081526020016060815260200160608152602001606081526020016060815260200160608152602001606081525090565b828054600181600116156101000203166002900490600052602060002090601f016020900481019282601f10620009d257805160ff191683800117855562000a02565b8280016001018555821562000a02579182015b8281111562000a02578251825591602001919060010190620009e5565b5062000a1092915062000a5a565b5090565b6101006040519081016040528060008152602001606081526020016000815260200160608152602001606081526020016000815260200160008152602001600081525090565b62000a7791905b8082111562000a10576000815560010162000a61565b90565b611ea78062000a8a6000396000f3fe6080604052600436106100825763ffffffff7c01000000000000000000000000000000000000000000000000000000006000350416631c87fb218114610084578063474da79a146102155780637239d6be1461052557806381b2d07b146109025780638736381a14610929578063a1c362021461093e578063f971238c14610b12575b005b34801561009057600080fd5b506100ae600480360360208110156100a757600080fd5b5035611098565b6040518089815260200180602001888152602001806020018060200187815260200186815260200185815260200184810384528b818151815260200191508051906020019080838360005b838110156101115781810151838201526020016100f9565b50505050905090810190601f16801561013e5780820380516001836020036101000a031916815260200191505b5084810383528951815289516020918201918b019080838360005b83811015610171578181015183820152602001610159565b50505050905090810190601f16801561019e5780820380516001836020036101000a031916815260200191505b5084810382528851815288516020918201918a019080838360005b838110156101d15781810151838201526020016101b9565b50505050905090810190601f1680156101fe5780820380516001836020036101000a031916815260200191505b509b50505050505050505050505060405180910390f35b34801561022157600080fd5b5061023f6004803603602081101561023857600080fd5b5035611277565b604051808981526020018060200180602001806020018060200180602001806020018060200188810388528f818151815260200191508051906020019080838360005b8381101561029a578181015183820152602001610282565b50505050905090810190601f1680156102c75780820380516001836020036101000a031916815260200191505b5088810387528e818151815260200191508051906020019080838360005b838110156102fd5781810151838201526020016102e5565b50505050905090810190601f16801561032a5780820380516001836020036101000a031916815260200191505b5088810386528d5181528d516020918201918f019080838360005b8381101561035d578181015183820152602001610345565b50505050905090810190601f16801561038a5780820380516001836020036101000a031916815260200191505b5088810385528c5181528c516020918201918e019080838360005b838110156103bd5781810151838201526020016103a5565b50505050905090810190601f1680156103ea5780820380516001836020036101000a031916815260200191505b5088810384528b5181528b516020918201918d019080838360005b8381101561041d578181015183820152602001610405565b50505050905090810190601f16801561044a5780820380516001836020036101000a031916815260200191505b5088810383528a5181528a516020918201918c019080838360005b8381101561047d578181015183820152602001610465565b50505050905090810190601f1680156104aa5780820380516001836020036101000a031916815260200191505b5088810382528951815289516020918201918b019080838360005b838110156104dd5781810151838201526020016104c5565b50505050905090810190601f16801561050a5780820380516001836020036101000a031916815260200191505b509f5050505050505050505050505050505060405180910390f35b34801561053157600080fd5b50610082600480360360e081101561054857600080fd5b81019060208101813564010000000081111561056357600080fd5b82018360208201111561057557600080fd5b8035906020019184600183028401116401000000008311171561059757600080fd5b91908080601f01602080910402602001604051908101604052809392919081815260200183838082843760009201919091525092959493602081019350359150506401000000008111156105ea57600080fd5b8201836020820111156105fc57600080fd5b8035906020019184600183028401116401000000008311171561061e57600080fd5b91908080601f016020809104026020016040519081016040528093929190818152602001838380828437600092019190915250929594936020810193503591505064010000000081111561067157600080fd5b82018360208201111561068357600080fd5b803590602001918460018302840111640100000000831117156106a557600080fd5b91908080601f01602080910402602001604051908101604052809392919081815260200183838082843760009201919091525092959493602081019350359150506401000000008111156106f857600080fd5b82018360208201111561070a57600080fd5b8035906020019184600183028401116401000000008311171561072c57600080fd5b91908080601f016020809104026020016040519081016040528093929190818152602001838380828437600092019190915250929594936020810193503591505064010000000081111561077f57600080fd5b82018360208201111561079157600080fd5b803590602001918460018302840111640100000000831117156107b357600080fd5b91908080601f016020809104026020016040519081016040528093929190818152602001838380828437600092019190915250929594936020810193503591505064010000000081111561080657600080fd5b82018360208201111561081857600080fd5b8035906020019184600183028401116401000000008311171561083a57600080fd5b91908080601f016020809104026020016040519081016040528093929190818152602001838380828437600092019190915250929594936020810193503591505064010000000081111561088d57600080fd5b82018360208201111561089f57600080fd5b803590602001918460018302840111640100000000831117156108c157600080fd5b91908080601f01602080910402602001604051908101604052809392919081815260200183838082843760009201919091525092955061167f945050505050565b34801561090e57600080fd5b50610917611ab6565b60408051918252519081900360200190f35b34801561093557600080fd5b50610917611abc565b34801561094a57600080fd5b50610082600480360360e081101561096157600080fd5b81019060208101813564010000000081111561097c57600080fd5b82018360208201111561098e57600080fd5b803590602001918460018302840111640100000000831117156109b057600080fd5b91908080601f01602080910402602001604051908101604052809392919081815260200183838082843760009201919091525092958435959094909350604081019250602001359050640100000000811115610a0b57600080fd5b820183602082011115610a1d57600080fd5b80359060200191846001830284011164010000000083111715610a3f57600080fd5b91908080601f0160208091040260200160405190810160405280939291908181526020018383808284376000920191909152509295949360208101935035915050640100000000811115610a9257600080fd5b820183602082011115610aa457600080fd5b80359060200191846001830284011164010000000083111715610ac657600080fd5b91908080601f0160208091040260200160405190810160405280939291908181526020018383808284376000920191909152509295505082359350505060208101359060400135611ac2565b348015610b1e57600080fd5b5061008260048036036101c0811015610b3657600080fd5b810190602081018135640100000000811115610b5157600080fd5b820183602082011115610b6357600080fd5b80359060200191846001830284011164010000000083111715610b8557600080fd5b91908080601f0160208091040260200160405190810160405280939291908181526020018383808284376000920191909152509295949360208101935035915050640100000000811115610bd857600080fd5b820183602082011115610bea57600080fd5b80359060200191846001830284011164010000000083111715610c0c57600080fd5b91908080601f0160208091040260200160405190810160405280939291908181526020018383808284376000920191909152509295949360208101935035915050640100000000811115610c5f57600080fd5b820183602082011115610c7157600080fd5b80359060200191846001830284011164010000000083111715610c9357600080fd5b91908080601f0160208091040260200160405190810160405280939291908181526020018383808284376000920191909152509295949360208101935035915050640100000000811115610ce657600080fd5b820183602082011115610cf857600080fd5b80359060200191846001830284011164010000000083111715610d1a57600080fd5b91908080601f0160208091040260200160405190810160405280939291908181526020018383808284376000920191909152509295949360208101935035915050640100000000811115610d6d57600080fd5b820183602082011115610d7f57600080fd5b80359060200191846001830284011164010000000083111715610da157600080fd5b91908080601f0160208091040260200160405190810160405280939291908181526020018383808284376000920191909152509295949360208101935035915050640100000000811115610df457600080fd5b820183602082011115610e0657600080fd5b80359060200191846001830284011164010000000083111715610e2857600080fd5b91908080601f0160208091040260200160405190810160405280939291908181526020018383808284376000920191909152509295949360208101935035915050640100000000811115610e7b57600080fd5b820183602082011115610e8d57600080fd5b80359060200191846001830284011164010000000083111715610eaf57600080fd5b91908080601f0160208091040260200160405190810160405280939291908181526020018383808284376000920191909152509295949360208101935035915050640100000000811115610f0257600080fd5b820183602082011115610f1457600080fd5b80359060200191846001830284011164010000000083111715610f3657600080fd5b91908080601f01602080910402602001604051908101604052809392919081815260200183838082843760009201919091525092958435959094909350604081019250602001359050640100000000811115610f9157600080fd5b820183602082011115610fa357600080fd5b80359060200191846001830284011164010000000083111715610fc557600080fd5b91908080601f016020809104026020016040519081016040528093929190818152602001838380828437600092019190915250929594936020810193503591505064010000000081111561101857600080fd5b82018360208201111561102a57600080fd5b8035906020019184600183028401116401000000008311171561104c57600080fd5b91908080601f0160208091040260200160405190810160405280939291908181526020018383808284376000920191909152509295505082359350505060208101359060400135611d29565b60026020818152600092835260409283902080546001808301805487519281161561010002600019011695909504601f81018590048502820185019096528581529094919390929091908301828280156111335780601f1061110857610100808354040283529160200191611133565b820191906000526020600020905b81548152906001019060200180831161111657829003601f168201915b505050506002838101546003850180546040805160206001841615610100026000190190931695909504601f8101839004830286018301909152808552959692959294509091908301828280156111cb5780601f106111a0576101008083540402835291602001916111cb565b820191906000526020600020905b8154815290600101906020018083116111ae57829003601f168201915b5050505060048301805460408051602060026001851615610100026000190190941693909304601f810184900484028201840190925281815294959493509083018282801561125b5780601f106112305761010080835404028352916020019161125b565b820191906000526020600020905b81548152906001019060200180831161123e57829003601f168201915b5050505050908060050154908060060154908060070154905088565b600160208181526000928352604092839020805481840180548651600296821615610100026000190190911695909504601f810185900485028601850190965285855290949193929091908301828280156113135780601f106112e857610100808354040283529160200191611313565b820191906000526020600020905b8154815290600101906020018083116112f657829003601f168201915b50505060028085018054604080516020601f60001961010060018716150201909416959095049283018590048502810185019091528181529596959450909250908301828280156113a55780601f1061137a576101008083540402835291602001916113a5565b820191906000526020600020905b81548152906001019060200180831161138857829003601f168201915b5050505060038301805460408051602060026001851615610100026000190190941693909304601f81018490048402820184019092528181529495949350908301828280156114355780601f1061140a57610100808354040283529160200191611435565b820191906000526020600020905b81548152906001019060200180831161141857829003601f168201915b5050505060048301805460408051602060026001851615610100026000190190941693909304601f81018490048402820184019092528181529495949350908301828280156114c55780601f1061149a576101008083540402835291602001916114c5565b820191906000526020600020905b8154815290600101906020018083116114a857829003601f168201915b5050505060058301805460408051602060026001851615610100026000190190941693909304601f81018490048402820184019092528181529495949350908301828280156115555780601f1061152a57610100808354040283529160200191611555565b820191906000526020600020905b81548152906001019060200180831161153857829003601f168201915b5050505060068301805460408051602060026001851615610100026000190190941693909304601f81018490048402820184019092528181529495949350908301828280156115e55780601f106115ba576101008083540402835291602001916115e5565b820191906000526020600020905b8154815290600101906020018083116115c857829003601f168201915b5050505060078301805460408051602060026001851615610100026000190190941693909304601f81018490048402820184019092528181529495949350908301828280156116755780601f1061164a57610100808354040283529160200191611675565b820191906000526020600020905b81548152906001019060200180831161165857829003601f168201915b5050505050905088565b600080546001019055611690611d57565b6000805480835260208084018b815260408086018c9052606086018b9052608086018a905260a0860189905260c0860188905260e0860187905292845260018083529290932084518155925180518594936116f093908501920190611d9d565b506040820151805161170c916002840191602090910190611d9d565b5060608201518051611728916003840191602090910190611d9d565b5060808201518051611744916004840191602090910190611d9d565b5060a08201518051611760916005840191602090910190611d9d565b5060c0820151805161177c916006840191602090910190611d9d565b5060e08201518051611798916007840191602090910190611d9d565b509050507f885fcc95c75581ffe21d0835a75217dbc27eeac68b459842550369ce95abae4760005489898989898989604051808981526020018060200180602001806020018060200180602001806020018060200188810388528f818151815260200191508051906020019080838360005b8381101561182257818101518382015260200161180a565b50505050905090810190601f16801561184f5780820380516001836020036101000a031916815260200191505b5088810387528e818151815260200191508051906020019080838360005b8381101561188557818101518382015260200161186d565b50505050905090810190601f1680156118b25780820380516001836020036101000a031916815260200191505b5088810386528d5181528d516020918201918f019080838360005b838110156118e55781810151838201526020016118cd565b50505050905090810190601f1680156119125780820380516001836020036101000a031916815260200191505b5088810385528c5181528c516020918201918e019080838360005b8381101561194557818101518382015260200161192d565b50505050905090810190601f1680156119725780820380516001836020036101000a031916815260200191505b5088810384528b5181528b516020918201918d019080838360005b838110156119a557818101518382015260200161198d565b50505050905090810190601f1680156119d25780820380516001836020036101000a031916815260200191505b5088810383528a5181528a516020918201918c019080838360005b83811015611a055781810151838201526020016119ed565b50505050905090810190601f168015611a325780820380516001836020036101000a031916815260200191505b5088810382528951815289516020918201918b019080838360005b83811015611a65578181015183820152602001611a4d565b50505050905090810190601f168015611a925780820380516001836020036101000a031916815260200191505b509f5050505050505050505050505050505060405180910390a15050505050505050565b30315b90565b60005481565b611aca611e1b565b6000805480835260208084018b815260408086018c9052606086018b9052608086018a905260a0860189905260c0860188905260e08601879052928452600282529190922083518155905180518493611b2a926001850192910190611d9d565b506040820151600282015560608201518051611b50916003840191602090910190611d9d565b5060808201518051611b6c916004840191602090910190611d9d565b5060a0820151816005015560c0820151816006015560e082015181600701559050507f5ee338db78855874b54df61d10b711be7658a86fb1354b2a065dd122d9b1dce6600054898989898989896040518089815260200180602001888152602001806020018060200187815260200186815260200185815260200184810384528b818151815260200191508051906020019080838360005b83811015611c1c578181015183820152602001611c04565b50505050905090810190601f168015611c495780820380516001836020036101000a031916815260200191505b5084810383528951815289516020918201918b019080838360005b83811015611c7c578181015183820152602001611c64565b50505050905090810190601f168015611ca95780820380516001836020036101000a031916815260200191505b5084810382528851815288516020918201918a019080838360005b83811015611cdc578181015183820152602001611cc4565b50505050905090810190601f168015611d095780820380516001836020036101000a031916815260200191505b509b50505050505050505050505060405180910390a15050505050505050565b611d388e8e8e8e8e8e8e61167f565b611d4787878787878787611ac2565b5050505050505050505050505050565b6101006040519081016040528060008152602001606081526020016060815260200160608152602001606081526020016060815260200160608152602001606081525090565b828054600181600116156101000203166002900490600052602060002090601f016020900481019282601f10611dde57805160ff1916838001178555611e0b565b82800160010185558215611e0b579182015b82811115611e0b578251825591602001919060010190611df0565b50611e17929150611e61565b5090565b6101006040519081016040528060008152602001606081526020016000815260200160608152602001606081526020016000815260200160008152602001600081525090565b611ab991905b80821115611e175760008155600101611e6756fea165627a7a7230582052ba1008313b0415353bcb66a75eb0eca7daf4db79a85d6f85f3833b8e03a9a40029",
  "source": "// SPDX-License-Identifier: MIT\r\npragma solidity >=0.4.22 <0.9.0;\r\n\r\ncontract Contract {\r\n    uint256 public contractCount = 0;\r\n\r\n    struct Contract {\r\n        uint256 contract_id;\r\n        string contract_type;\r\n        string contract_name;\r\n        string job_title;\r\n        string status;\r\n        string scope_of_work;\r\n        string start_date;\r\n        string end_date;\r\n    }\r\n\r\n    struct ContractDetails {\r\n        uint256 contract_id;\r\n        string currency;\r\n        int256 payment_rate;\r\n        string payment_frequency;\r\n        string payment_due;\r\n        uint256 employer_id;\r\n        uint256 contractor_id;\r\n        uint256 proposal_id;\r\n    }\r\n\r\n    event ContractCompleted(uint256 contract_id);\r\n\r\n    mapping(uint256 => Contract) public contracts;\r\n    mapping(uint256 => ContractDetails) public contracts_details;\r\n\r\n    event ContractCreated(\r\n        uint256 contract_id,\r\n        string contract_type,\r\n        string contract_name,\r\n        string job_title,\r\n        string status,\r\n        string scope_of_work,\r\n        string start_date,\r\n        string end_date\r\n    );\r\n\r\n    event ContractDetailsCreated(\r\n        uint256 contract_id,\r\n        string currency,\r\n        int256 payment_rate,\r\n        string payment_frequency,\r\n        string payment_due,\r\n        uint256 employer_id,\r\n        uint256 contractor_id,\r\n        uint256 proposal_id\r\n    );\r\n    Contract testContract;\r\n\r\n    constructor() public {\r\n        createContract(\r\n            \"Contractor\",\r\n            \"Test Contract\",\r\n            \"Backend Developer\",\r\n            \"Both parties agreed\",\r\n            \"5 endpoints\",\r\n            \"15/05/2022\",\r\n            \"20/05/2022\",\r\n            \"COP\",\r\n            1800000,\r\n            \"Monthly\",\r\n            \"30\",\r\n            1,\r\n            1,\r\n            1\r\n        );\r\n    }\r\n\r\n    function createContract(\r\n        string memory contract_type,\r\n        string memory contract_name,\r\n        string memory job_title,\r\n        string memory status,\r\n        string memory scope_of_work,\r\n        string memory start_date,\r\n        string memory end_date,\r\n        string memory currency,\r\n        int256 payment_rate,\r\n        string memory payment_frequency,\r\n        string memory payment_due,\r\n        uint256 employer_id,\r\n        uint256 contractor_id,\r\n        uint256 proposal_id\r\n    ) public {\r\n        addContract(\r\n            contract_type,\r\n            contract_name,\r\n            job_title,\r\n            status,\r\n            scope_of_work,\r\n            start_date,\r\n            end_date\r\n        );\r\n        addContractDetails(\r\n            currency,\r\n            payment_rate,\r\n            payment_frequency,\r\n            payment_due,\r\n            employer_id,\r\n            contractor_id,\r\n            proposal_id\r\n        );\r\n    }\r\n\r\n    function addContract(\r\n        string memory contract_type,\r\n        string memory contract_name,\r\n        string memory job_title,\r\n        string memory status,\r\n        string memory scope_of_work,\r\n        string memory start_date,\r\n        string memory end_date\r\n    ) public {\r\n        contractCount++;\r\n        Contract memory contractInfo;\r\n\r\n        contractInfo.contract_id = contractCount;\r\n        contractInfo.contract_type = contract_type;\r\n        contractInfo.contract_name = contract_name;\r\n        contractInfo.job_title = job_title;\r\n        contractInfo.status = status;\r\n        contractInfo.scope_of_work = scope_of_work;\r\n        contractInfo.start_date = start_date;\r\n        contractInfo.end_date = end_date;\r\n\r\n        contracts[contractCount] = contractInfo;\r\n        emit ContractCreated(\r\n            contractCount,\r\n            contract_type,\r\n            contract_name,\r\n            job_title,\r\n            status,\r\n            scope_of_work,\r\n            start_date,\r\n            end_date\r\n        );\r\n    }\r\n\r\n    function addContractDetails(\r\n        string memory currency,\r\n        int256 payment_rate,\r\n        string memory payment_frequency,\r\n        string memory payment_due,\r\n        uint256 employer_id,\r\n        uint256 contractor_id,\r\n        uint256 proposal_id\r\n    ) public {\r\n        ContractDetails memory contractDetails;\r\n\r\n        contractDetails.contract_id = contractCount;\r\n        contractDetails.currency = currency;\r\n        contractDetails.payment_rate = payment_rate;\r\n        contractDetails.payment_frequency = payment_frequency;\r\n        contractDetails.payment_due = payment_due;\r\n        contractDetails.employer_id = employer_id;\r\n        contractDetails.contractor_id = contractor_id;\r\n        contractDetails.proposal_id = proposal_id;\r\n\r\n        contracts_details[contractCount] = contractDetails;\r\n        emit ContractDetailsCreated(\r\n            contractCount,\r\n            currency,\r\n            payment_rate,\r\n            payment_frequency,\r\n            payment_due,\r\n            employer_id,\r\n            contractor_id,\r\n            proposal_id\r\n        );\r\n    }\r\n\r\n    // funcion para para marcar como completa una tarea\r\n    // function markCompleted(uint256 _id) public {\r\n    //   Contract memory _task = tasks[_id];\r\n    //   _task.completed = !_task.completed;\r\n    //   tasks[_id] = _task;\r\n    //   emit ContractCompleted(_id, _task.completed);\r\n    // }\r\n\r\n    // funcion para enviar ether del contrato hacia una direccion\r\n    // function sendEther(address payable recipient, uint reward) external {\r\n    //   uint money = reward * 1 ether;\r\n    //   recipient.transfer(money);\r\n    // }\r\n\r\n    // funcion para obtener el valor de la recompensa de cada task\r\n    // function getTaskReward(uint256 _id) external view returns(uint){\r\n    //   Task memory _task = tasks[_id];\r\n    //   return _task.reward;\r\n    // }\r\n\r\n    // funcion para depositar ether en el smart contract\r\n    function() external payable {}\r\n\r\n    // funcion para mostrar cuanto ether tiene este smart contract\r\n    function showBalance() external view returns (uint256) {\r\n        return address(this).balance;\r\n    }\r\n}\r\n",
  "sourcePath": "C:/Users/sesan/Desktop/Blockchain/contracts/Contract.sol",
  "compiler": {
    "name": "solc",
    "version": "0.5.0+commit.1d4f565a.Emscripten.clang"
  },
  "schemaVersion": "3.0.1",
  "updatedAt": "2022-05-15T15:20:14.509Z",
  "devdoc": {
    "methods": {}
  },
  "userdoc": {
    "methods": {}
  }
}