{
  "contractName": "ContractSC",
  "abi": [
    {
      "constant": true,
      "inputs": [
        {
          "name": "",
          "type": "uint256"
        }
      ],
      "name": "contracts_details",
      "outputs": [
        {
          "name": "contract_id",
          "type": "uint256"
        },
        {
          "name": "currency",
          "type": "string"
        },
        {
          "name": "payment_rate",
          "type": "int256"
        },
        {
          "name": "payment_frequency",
          "type": "string"
        },
        {
          "name": "payment_due",
          "type": "string"
        },
        {
          "name": "employer_id",
          "type": "uint256"
        },
        {
          "name": "contractor_id",
          "type": "uint256"
        },
        {
          "name": "proposal_id",
          "type": "uint256"
        }
      ],
      "payable": false,
      "stateMutability": "view",
      "type": "function",
      "signature": "0x1c87fb21"
    },
    {
      "constant": true,
      "inputs": [
        {
          "name": "",
          "type": "uint256"
        }
      ],
      "name": "contracts",
      "outputs": [
        {
          "name": "contract_id",
          "type": "uint256"
        },
        {
          "name": "contract_type",
          "type": "string"
        },
        {
          "name": "contract_name",
          "type": "string"
        },
        {
          "name": "job_title",
          "type": "string"
        },
        {
          "name": "status",
          "type": "string"
        },
        {
          "name": "scope_of_work",
          "type": "string"
        },
        {
          "name": "start_date",
          "type": "string"
        },
        {
          "name": "end_date",
          "type": "string"
        }
      ],
      "payable": false,
      "stateMutability": "view",
      "type": "function",
      "signature": "0x474da79a"
    },
    {
      "constant": true,
      "inputs": [],
      "name": "contractCount",
      "outputs": [
        {
          "name": "",
          "type": "uint256"
        }
      ],
      "payable": false,
      "stateMutability": "view",
      "type": "function",
      "signature": "0x8736381a"
    },
    {
      "inputs": [],
      "payable": false,
      "stateMutability": "nonpayable",
      "type": "constructor",
      "signature": "constructor"
    },
    {
      "payable": true,
      "stateMutability": "payable",
      "type": "fallback"
    },
    {
      "anonymous": false,
      "inputs": [
        {
          "indexed": false,
          "name": "contract_id",
          "type": "uint256"
        },
        {
          "indexed": false,
          "name": "status",
          "type": "string"
        }
      ],
      "name": "ChangedContractStatus",
      "type": "event",
      "signature": "0x87e2651bc29355533cdeaebe57e6a5dc05b764bdd16e1010aef88e173edfdbc8"
    },
    {
      "anonymous": false,
      "inputs": [
        {
          "indexed": false,
          "name": "contract_id",
          "type": "uint256"
        },
        {
          "indexed": false,
          "name": "contract_type",
          "type": "string"
        },
        {
          "indexed": false,
          "name": "contract_name",
          "type": "string"
        },
        {
          "indexed": false,
          "name": "job_title",
          "type": "string"
        },
        {
          "indexed": false,
          "name": "status",
          "type": "string"
        },
        {
          "indexed": false,
          "name": "scope_of_work",
          "type": "string"
        },
        {
          "indexed": false,
          "name": "start_date",
          "type": "string"
        },
        {
          "indexed": false,
          "name": "end_date",
          "type": "string"
        }
      ],
      "name": "ContractCreated",
      "type": "event",
      "signature": "0x885fcc95c75581ffe21d0835a75217dbc27eeac68b459842550369ce95abae47"
    },
    {
      "anonymous": false,
      "inputs": [
        {
          "indexed": false,
          "name": "contract_id",
          "type": "uint256"
        },
        {
          "indexed": false,
          "name": "currency",
          "type": "string"
        },
        {
          "indexed": false,
          "name": "payment_rate",
          "type": "int256"
        },
        {
          "indexed": false,
          "name": "payment_frequency",
          "type": "string"
        },
        {
          "indexed": false,
          "name": "payment_due",
          "type": "string"
        },
        {
          "indexed": false,
          "name": "employer_id",
          "type": "uint256"
        },
        {
          "indexed": false,
          "name": "contractor_id",
          "type": "uint256"
        },
        {
          "indexed": false,
          "name": "proposal_id",
          "type": "uint256"
        }
      ],
      "name": "ContractDetailsCreated",
      "type": "event",
      "signature": "0x5ee338db78855874b54df61d10b711be7658a86fb1354b2a065dd122d9b1dce6"
    },
    {
      "anonymous": false,
      "inputs": [
        {
          "indexed": false,
          "name": "status",
          "type": "string"
        },
        {
          "indexed": false,
          "name": "contract_type",
          "type": "string"
        },
        {
          "indexed": false,
          "name": "scope_of_work",
          "type": "string"
        },
        {
          "indexed": false,
          "name": "start_date",
          "type": "string"
        },
        {
          "indexed": false,
          "name": "end_date",
          "type": "string"
        },
        {
          "indexed": false,
          "name": "currency",
          "type": "string"
        },
        {
          "indexed": false,
          "name": "payment_rate",
          "type": "int256"
        }
      ],
      "name": "ContractUpdated",
      "type": "event",
      "signature": "0x375787570f60317a305e9eb4d1d6a0301d08458e545c12ca0bd7cdd22370fa06"
    },
    {
      "constant": false,
      "inputs": [
        {
          "name": "contract_type",
          "type": "string"
        },
        {
          "name": "contract_name",
          "type": "string"
        },
        {
          "name": "job_title",
          "type": "string"
        },
        {
          "name": "status",
          "type": "string"
        },
        {
          "name": "scope_of_work",
          "type": "string"
        },
        {
          "name": "start_date",
          "type": "string"
        },
        {
          "name": "end_date",
          "type": "string"
        },
        {
          "name": "currency",
          "type": "string"
        },
        {
          "name": "payment_rate",
          "type": "int256"
        },
        {
          "name": "payment_frequency",
          "type": "string"
        },
        {
          "name": "payment_due",
          "type": "string"
        },
        {
          "name": "employer_id",
          "type": "uint256"
        },
        {
          "name": "contractor_id",
          "type": "uint256"
        },
        {
          "name": "proposal_id",
          "type": "uint256"
        }
      ],
      "name": "createContract",
      "outputs": [],
      "payable": false,
      "stateMutability": "nonpayable",
      "type": "function",
      "signature": "0xf971238c"
    },
    {
      "constant": false,
      "inputs": [
        {
          "name": "contract_type",
          "type": "string"
        },
        {
          "name": "contract_name",
          "type": "string"
        },
        {
          "name": "job_title",
          "type": "string"
        },
        {
          "name": "status",
          "type": "string"
        },
        {
          "name": "scope_of_work",
          "type": "string"
        },
        {
          "name": "start_date",
          "type": "string"
        },
        {
          "name": "end_date",
          "type": "string"
        }
      ],
      "name": "addContract",
      "outputs": [],
      "payable": false,
      "stateMutability": "nonpayable",
      "type": "function",
      "signature": "0x7239d6be"
    },
    {
      "constant": false,
      "inputs": [
        {
          "name": "currency",
          "type": "string"
        },
        {
          "name": "payment_rate",
          "type": "int256"
        },
        {
          "name": "payment_frequency",
          "type": "string"
        },
        {
          "name": "payment_due",
          "type": "string"
        },
        {
          "name": "employer_id",
          "type": "uint256"
        },
        {
          "name": "contractor_id",
          "type": "uint256"
        },
        {
          "name": "proposal_id",
          "type": "uint256"
        }
      ],
      "name": "addContractDetails",
      "outputs": [],
      "payable": false,
      "stateMutability": "nonpayable",
      "type": "function",
      "signature": "0xa1c36202"
    },
    {
      "constant": false,
      "inputs": [
        {
          "name": "_id",
          "type": "uint256"
        },
        {
          "name": "addr",
          "type": "address"
        }
      ],
      "name": "pay",
      "outputs": [],
      "payable": false,
      "stateMutability": "nonpayable",
      "type": "function",
      "signature": "0x31cbf5e3"
    },
    {
      "constant": false,
      "inputs": [
        {
          "name": "_id",
          "type": "uint256"
        },
        {
          "name": "status",
          "type": "string"
        }
      ],
      "name": "setContractStatus",
      "outputs": [],
      "payable": false,
      "stateMutability": "nonpayable",
      "type": "function",
      "signature": "0x243b67fe"
    },
    {
      "constant": false,
      "inputs": [
        {
          "name": "_id",
          "type": "uint256"
        },
        {
          "name": "status",
          "type": "string"
        },
        {
          "name": "contract_type",
          "type": "string"
        },
        {
          "name": "scope_of_work",
          "type": "string"
        },
        {
          "name": "start_date",
          "type": "string"
        },
        {
          "name": "end_date",
          "type": "string"
        },
        {
          "name": "currency",
          "type": "string"
        },
        {
          "name": "payment_rate",
          "type": "int256"
        }
      ],
      "name": "updateContract",
      "outputs": [],
      "payable": false,
      "stateMutability": "nonpayable",
      "type": "function",
      "signature": "0xaea0496e"
    },
    {
      "constant": true,
      "inputs": [
        {
          "name": "index",
          "type": "uint256"
        }
      ],
      "name": "getContract",
      "outputs": [
        {
          "name": "",
          "type": "string"
        },
        {
          "name": "",
          "type": "string"
        },
        {
          "name": "",
          "type": "string"
        },
        {
          "name": "",
          "type": "string"
        },
        {
          "name": "",
          "type": "string"
        },
        {
          "name": "",
          "type": "string"
        },
        {
          "name": "",
          "type": "string"
        }
      ],
      "payable": false,
      "stateMutability": "view",
      "type": "function",
      "signature": "0x6ebc8c86"
    },
    {
      "constant": true,
      "inputs": [
        {
          "name": "index",
          "type": "uint256"
        }
      ],
      "name": "getContractDetails",
      "outputs": [
        {
          "name": "",
          "type": "string"
        },
        {
          "name": "",
          "type": "int256"
        },
        {
          "name": "",
          "type": "string"
        },
        {
          "name": "",
          "type": "string"
        },
        {
          "name": "",
          "type": "uint256"
        },
        {
          "name": "",
          "type": "uint256"
        },
        {
          "name": "",
          "type": "uint256"
        }
      ],
      "payable": false,
      "stateMutability": "view",
      "type": "function",
      "signature": "0x4d6d6a9c"
    },
    {
      "constant": true,
      "inputs": [],
      "name": "showBalance",
      "outputs": [
        {
          "name": "",
          "type": "uint256"
        }
      ],
      "payable": false,
      "stateMutability": "view",
      "type": "function",
      "signature": "0x81b2d07b"
    }
  ],
  "bytecode": "0x6080604052600080553480156200001557600080fd5b50604080518082018252600a8082527f436f6e74726163746f720000000000000000000000000000000000000000000060208084019190915283518085018552600d81527f5465737420436f6e7472616374000000000000000000000000000000000000008183015284518086018652601181527f4261636b656e6420446576656c6f7065720000000000000000000000000000008184015285518087018752601381527f426f7468207061727469657320616772656564000000000000000000000000008185015286518088018852600b81527f3520656e64706f696e747300000000000000000000000000000000000000000081860152875180890189528681527f31352f30352f3230323200000000000000000000000000000000000000000000818701528851808a018a529687527f32302f30352f3230323200000000000000000000000000000000000000000000878701528851808a018a52600381527f434f500000000000000000000000000000000000000000000000000000000000818801528951808b018b52600781527f4d6f6e74686c7900000000000000000000000000000000000000000000000000818901528a51808c01909b5260028b527f3330000000000000000000000000000000000000000000000000000000000000978b01979097526200022b999597949693959294919391929091621b7740916001808064010000000062000231810204565b62000a7a565b6200024b8e8e8e8e8e8e8e64010000000062000275810204565b6200026587878787878787640100000000620006d1810204565b5050505050505050505050505050565b6000805460010190556200028862000949565b6000805480835260208084018b815260408086018c9052606086018b9052608086018a905260a0860189905260c0860188905260e086018790529284526001808352929093208451815592518051859493620002ea939085019201906200098f565b5060408201518051620003089160028401916020909101906200098f565b5060608201518051620003269160038401916020909101906200098f565b5060808201518051620003449160048401916020909101906200098f565b5060a08201518051620003629160058401916020909101906200098f565b5060c08201518051620003809160068401916020909101906200098f565b5060e082015180516200039e9160078401916020909101906200098f565b509050507f885fcc95c75581ffe21d0835a75217dbc27eeac68b459842550369ce95abae4760005489898989898989604051808981526020018060200180602001806020018060200180602001806020018060200188810388528f818151815260200191508051906020019080838360005b838110156200042a57818101518382015260200162000410565b50505050905090810190601f168015620004585780820380516001836020036101000a031916815260200191505b5088810387528e818151815260200191508051906020019080838360005b838110156200049057818101518382015260200162000476565b50505050905090810190601f168015620004be5780820380516001836020036101000a031916815260200191505b5088810386528d5181528d516020918201918f019080838360005b83811015620004f3578181015183820152602001620004d9565b50505050905090810190601f168015620005215780820380516001836020036101000a031916815260200191505b5088810385528c5181528c516020918201918e019080838360005b83811015620005565781810151838201526020016200053c565b50505050905090810190601f168015620005845780820380516001836020036101000a031916815260200191505b5088810384528b5181528b516020918201918d019080838360005b83811015620005b95781810151838201526020016200059f565b50505050905090810190601f168015620005e75780820380516001836020036101000a031916815260200191505b5088810383528a5181528a516020918201918c019080838360005b838110156200061c57818101518382015260200162000602565b50505050905090810190601f1680156200064a5780820380516001836020036101000a031916815260200191505b5088810382528951815289516020918201918b019080838360005b838110156200067f57818101518382015260200162000665565b50505050905090810190601f168015620006ad5780820380516001836020036101000a031916815260200191505b509f5050505050505050505050505050505060405180910390a15050505050505050565b620006db62000a14565b6000805480835260208084018b815260408086018c9052606086018b9052608086018a905260a0860189905260c0860188905260e086018790529284526002825291909220835181559051805184936200073d9260018501929101906200098f565b506040820151600282015560608201518051620007659160038401916020909101906200098f565b5060808201518051620007839160048401916020909101906200098f565b5060a0820151816005015560c0820151816006015560e082015181600701559050507f5ee338db78855874b54df61d10b711be7658a86fb1354b2a065dd122d9b1dce6600054898989898989896040518089815260200180602001888152602001806020018060200187815260200186815260200185815260200184810384528b818151815260200191508051906020019080838360005b83811015620008355781810151838201526020016200081b565b50505050905090810190601f168015620008635780820380516001836020036101000a031916815260200191505b5084810383528951815289516020918201918b019080838360005b83811015620008985781810151838201526020016200087e565b50505050905090810190601f168015620008c65780820380516001836020036101000a031916815260200191505b5084810382528851815288516020918201918a019080838360005b83811015620008fb578181015183820152602001620008e1565b50505050905090810190601f168015620009295780820380516001836020036101000a031916815260200191505b509b50505050505050505050505060405180910390a15050505050505050565b6101006040519081016040528060008152602001606081526020016060815260200160608152602001606081526020016060815260200160608152602001606081525090565b828054600181600116156101000203166002900490600052602060002090601f016020900481019282601f10620009d257805160ff191683800117855562000a02565b8280016001018555821562000a02579182015b8281111562000a02578251825591602001919060010190620009e5565b5062000a1092915062000a5a565b5090565b6101006040519081016040528060008152602001606081526020016000815260200160608152602001606081526020016000815260200160008152602001600081525090565b62000a7791905b8082111562000a10576000815560010162000a61565b90565b61455f8062000a8a6000396000f3fe6080604052600436106100b95763ffffffff7c01000000000000000000000000000000000000000000000000000000006000350416631c87fb2181146100bb578063243b67fe1461024c57806331cbf5e314610306578063474da79a1461034c5780634d6d6a9c1461065c5780636ebc8c86146107e65780637239d6be14610aef57806381b2d07b14610ecc5780638736381a14610ef3578063a1c3620214610f08578063aea0496e146110dc578063f971238c1461143c575b005b3480156100c757600080fd5b506100e5600480360360208110156100de57600080fd5b50356119c2565b6040518089815260200180602001888152602001806020018060200187815260200186815260200185815260200184810384528b818151815260200191508051906020019080838360005b83811015610148578181015183820152602001610130565b50505050905090810190601f1680156101755780820380516001836020036101000a031916815260200191505b5084810383528951815289516020918201918b019080838360005b838110156101a8578181015183820152602001610190565b50505050905090810190601f1680156101d55780820380516001836020036101000a031916815260200191505b5084810382528851815288516020918201918a019080838360005b838110156102085781810151838201526020016101f0565b50505050905090810190601f1680156102355780820380516001836020036101000a031916815260200191505b509b50505050505050505050505060405180910390f35b34801561025857600080fd5b506100b96004803603604081101561026f57600080fd5b8135919081019060408101602082013564010000000081111561029157600080fd5b8201836020820111156102a357600080fd5b803590602001918460018302840111640100000000831117156102c557600080fd5b91908080601f016020809104026020016040519081016040528093929190818152602001838380828437600092019190915250929550611ba1945050505050565b34801561031257600080fd5b506100b96004803603604081101561032957600080fd5b508035906020013573ffffffffffffffffffffffffffffffffffffffff16612160565b34801561035857600080fd5b506103766004803603602081101561036f57600080fd5b503561283a565b604051808981526020018060200180602001806020018060200180602001806020018060200188810388528f818151815260200191508051906020019080838360005b838110156103d15781810151838201526020016103b9565b50505050905090810190601f1680156103fe5780820380516001836020036101000a031916815260200191505b5088810387528e818151815260200191508051906020019080838360005b8381101561043457818101518382015260200161041c565b50505050905090810190601f1680156104615780820380516001836020036101000a031916815260200191505b5088810386528d5181528d516020918201918f019080838360005b8381101561049457818101518382015260200161047c565b50505050905090810190601f1680156104c15780820380516001836020036101000a031916815260200191505b5088810385528c5181528c516020918201918e019080838360005b838110156104f45781810151838201526020016104dc565b50505050905090810190601f1680156105215780820380516001836020036101000a031916815260200191505b5088810384528b5181528b516020918201918d019080838360005b8381101561055457818101518382015260200161053c565b50505050905090810190601f1680156105815780820380516001836020036101000a031916815260200191505b5088810383528a5181528a516020918201918c019080838360005b838110156105b457818101518382015260200161059c565b50505050905090810190601f1680156105e15780820380516001836020036101000a031916815260200191505b5088810382528951815289516020918201918b019080838360005b838110156106145781810151838201526020016105fc565b50505050905090810190601f1680156106415780820380516001836020036101000a031916815260200191505b509f5050505050505050505050505050505060405180910390f35b34801561066857600080fd5b506106866004803603602081101561067f57600080fd5b5035612c42565b6040518080602001888152602001806020018060200187815260200186815260200185815260200184810384528b818151815260200191508051906020019080838360005b838110156106e35781810151838201526020016106cb565b50505050905090810190601f1680156107105780820380516001836020036101000a031916815260200191505b5084810383528951815289516020918201918b019080838360005b8381101561074357818101518382015260200161072b565b50505050905090810190601f1680156107705780820380516001836020036101000a031916815260200191505b5084810382528851815288516020918201918a019080838360005b838110156107a357818101518382015260200161078b565b50505050905090810190601f1680156107d05780820380516001836020036101000a031916815260200191505b509a505050505050505050505060405180910390f35b3480156107f257600080fd5b506108106004803603602081101561080957600080fd5b5035612e46565b604051808060200180602001806020018060200180602001806020018060200188810388528f818151815260200191508051906020019080838360005b8381101561086557818101518382015260200161084d565b50505050905090810190601f1680156108925780820380516001836020036101000a031916815260200191505b5088810387528e818151815260200191508051906020019080838360005b838110156108c85781810151838201526020016108b0565b50505050905090810190601f1680156108f55780820380516001836020036101000a031916815260200191505b5088810386528d5181528d516020918201918f019080838360005b83811015610928578181015183820152602001610910565b50505050905090810190601f1680156109555780820380516001836020036101000a031916815260200191505b5088810385528c5181528c516020918201918e019080838360005b83811015610988578181015183820152602001610970565b50505050905090810190601f1680156109b55780820380516001836020036101000a031916815260200191505b5088810384528b5181528b516020918201918d019080838360005b838110156109e85781810151838201526020016109d0565b50505050905090810190601f168015610a155780820380516001836020036101000a031916815260200191505b5088810383528a5181528a516020918201918c019080838360005b83811015610a48578181015183820152602001610a30565b50505050905090810190601f168015610a755780820380516001836020036101000a031916815260200191505b5088810382528951815289516020918201918b019080838360005b83811015610aa8578181015183820152602001610a90565b50505050905090810190601f168015610ad55780820380516001836020036101000a031916815260200191505b509e50505050505050505050505050505060405180910390f35b348015610afb57600080fd5b506100b9600480360360e0811015610b1257600080fd5b810190602081018135640100000000811115610b2d57600080fd5b820183602082011115610b3f57600080fd5b80359060200191846001830284011164010000000083111715610b6157600080fd5b91908080601f0160208091040260200160405190810160405280939291908181526020018383808284376000920191909152509295949360208101935035915050640100000000811115610bb457600080fd5b820183602082011115610bc657600080fd5b80359060200191846001830284011164010000000083111715610be857600080fd5b91908080601f0160208091040260200160405190810160405280939291908181526020018383808284376000920191909152509295949360208101935035915050640100000000811115610c3b57600080fd5b820183602082011115610c4d57600080fd5b80359060200191846001830284011164010000000083111715610c6f57600080fd5b91908080601f0160208091040260200160405190810160405280939291908181526020018383808284376000920191909152509295949360208101935035915050640100000000811115610cc257600080fd5b820183602082011115610cd457600080fd5b80359060200191846001830284011164010000000083111715610cf657600080fd5b91908080601f0160208091040260200160405190810160405280939291908181526020018383808284376000920191909152509295949360208101935035915050640100000000811115610d4957600080fd5b820183602082011115610d5b57600080fd5b80359060200191846001830284011164010000000083111715610d7d57600080fd5b91908080601f0160208091040260200160405190810160405280939291908181526020018383808284376000920191909152509295949360208101935035915050640100000000811115610dd057600080fd5b820183602082011115610de257600080fd5b80359060200191846001830284011164010000000083111715610e0457600080fd5b91908080601f0160208091040260200160405190810160405280939291908181526020018383808284376000920191909152509295949360208101935035915050640100000000811115610e5757600080fd5b820183602082011115610e6957600080fd5b80359060200191846001830284011164010000000083111715610e8b57600080fd5b91908080601f01602080910402602001604051908101604052809392919081815260200183838082843760009201919091525092955061327d945050505050565b348015610ed857600080fd5b50610ee16136b4565b60408051918252519081900360200190f35b348015610eff57600080fd5b50610ee16136ba565b348015610f1457600080fd5b506100b9600480360360e0811015610f2b57600080fd5b810190602081018135640100000000811115610f4657600080fd5b820183602082011115610f5857600080fd5b80359060200191846001830284011164010000000083111715610f7a57600080fd5b91908080601f01602080910402602001604051908101604052809392919081815260200183838082843760009201919091525092958435959094909350604081019250602001359050640100000000811115610fd557600080fd5b820183602082011115610fe757600080fd5b8035906020019184600183028401116401000000008311171561100957600080fd5b91908080601f016020809104026020016040519081016040528093929190818152602001838380828437600092019190915250929594936020810193503591505064010000000081111561105c57600080fd5b82018360208201111561106e57600080fd5b8035906020019184600183028401116401000000008311171561109057600080fd5b91908080601f01602080910402602001604051908101604052809392919081815260200183838082843760009201919091525092955050823593505050602081013590604001356136c0565b3480156110e857600080fd5b506100b9600480360361010081101561110057600080fd5b8135919081019060408101602082013564010000000081111561112257600080fd5b82018360208201111561113457600080fd5b8035906020019184600183028401116401000000008311171561115657600080fd5b91908080601f01602080910402602001604051908101604052809392919081815260200183838082843760009201919091525092959493602081019350359150506401000000008111156111a957600080fd5b8201836020820111156111bb57600080fd5b803590602001918460018302840111640100000000831117156111dd57600080fd5b91908080601f016020809104026020016040519081016040528093929190818152602001838380828437600092019190915250929594936020810193503591505064010000000081111561123057600080fd5b82018360208201111561124257600080fd5b8035906020019184600183028401116401000000008311171561126457600080fd5b91908080601f01602080910402602001604051908101604052809392919081815260200183838082843760009201919091525092959493602081019350359150506401000000008111156112b757600080fd5b8201836020820111156112c957600080fd5b803590602001918460018302840111640100000000831117156112eb57600080fd5b91908080601f016020809104026020016040519081016040528093929190818152602001838380828437600092019190915250929594936020810193503591505064010000000081111561133e57600080fd5b82018360208201111561135057600080fd5b8035906020019184600183028401116401000000008311171561137257600080fd5b91908080601f01602080910402602001604051908101604052809392919081815260200183838082843760009201919091525092959493602081019350359150506401000000008111156113c557600080fd5b8201836020820111156113d757600080fd5b803590602001918460018302840111640100000000831117156113f957600080fd5b91908080601f0160208091040260200160405190810160405280939291908181526020018383808284376000920191909152509295505091359250613927915050565b34801561144857600080fd5b506100b960048036036101c081101561146057600080fd5b81019060208101813564010000000081111561147b57600080fd5b82018360208201111561148d57600080fd5b803590602001918460018302840111640100000000831117156114af57600080fd5b91908080601f016020809104026020016040519081016040528093929190818152602001838380828437600092019190915250929594936020810193503591505064010000000081111561150257600080fd5b82018360208201111561151457600080fd5b8035906020019184600183028401116401000000008311171561153657600080fd5b91908080601f016020809104026020016040519081016040528093929190818152602001838380828437600092019190915250929594936020810193503591505064010000000081111561158957600080fd5b82018360208201111561159b57600080fd5b803590602001918460018302840111640100000000831117156115bd57600080fd5b91908080601f016020809104026020016040519081016040528093929190818152602001838380828437600092019190915250929594936020810193503591505064010000000081111561161057600080fd5b82018360208201111561162257600080fd5b8035906020019184600183028401116401000000008311171561164457600080fd5b91908080601f016020809104026020016040519081016040528093929190818152602001838380828437600092019190915250929594936020810193503591505064010000000081111561169757600080fd5b8201836020820111156116a957600080fd5b803590602001918460018302840111640100000000831117156116cb57600080fd5b91908080601f016020809104026020016040519081016040528093929190818152602001838380828437600092019190915250929594936020810193503591505064010000000081111561171e57600080fd5b82018360208201111561173057600080fd5b8035906020019184600183028401116401000000008311171561175257600080fd5b91908080601f01602080910402602001604051908101604052809392919081815260200183838082843760009201919091525092959493602081019350359150506401000000008111156117a557600080fd5b8201836020820111156117b757600080fd5b803590602001918460018302840111640100000000831117156117d957600080fd5b91908080601f016020809104026020016040519081016040528093929190818152602001838380828437600092019190915250929594936020810193503591505064010000000081111561182c57600080fd5b82018360208201111561183e57600080fd5b8035906020019184600183028401116401000000008311171561186057600080fd5b91908080601f016020809104026020016040519081016040528093929190818152602001838380828437600092019190915250929584359590949093506040810192506020013590506401000000008111156118bb57600080fd5b8201836020820111156118cd57600080fd5b803590602001918460018302840111640100000000831117156118ef57600080fd5b91908080601f016020809104026020016040519081016040528093929190818152602001838380828437600092019190915250929594936020810193503591505064010000000081111561194257600080fd5b82018360208201111561195457600080fd5b8035906020019184600183028401116401000000008311171561197657600080fd5b91908080601f01602080910402602001604051908101604052809392919081815260200183838082843760009201919091525092955050823593505050602081013590604001356143e1565b60026020818152600092835260409283902080546001808301805487519281161561010002600019011695909504601f8101859004850282018501909652858152909491939092909190830182828015611a5d5780601f10611a3257610100808354040283529160200191611a5d565b820191906000526020600020905b815481529060010190602001808311611a4057829003601f168201915b505050506002838101546003850180546040805160206001841615610100026000190190931695909504601f810183900483028601830190915280855295969295929450909190830182828015611af55780601f10611aca57610100808354040283529160200191611af5565b820191906000526020600020905b815481529060010190602001808311611ad857829003601f168201915b5050505060048301805460408051602060026001851615610100026000190190941693909304601f8101849004840282018401909252818152949594935090830182828015611b855780601f10611b5a57610100808354040283529160200191611b85565b820191906000526020600020905b815481529060010190602001808311611b6857829003601f168201915b5050505050908060050154908060060154908060070154905088565b611ba961440f565b600083815260016020818152604092839020835161010080820186528254825282850180548751600297821615909302600019011695909504601f8101859004850282018501909652858152909491938584019391929091830182828015611c525780601f10611c2757610100808354040283529160200191611c52565b820191906000526020600020905b815481529060010190602001808311611c3557829003601f168201915b5050509183525050600282810180546040805160206001841615610100026000190190931694909404601f81018390048302850183019091528084529381019390830182828015611ce45780601f10611cb957610100808354040283529160200191611ce4565b820191906000526020600020905b815481529060010190602001808311611cc757829003601f168201915b505050918352505060038201805460408051602060026001851615610100026000190190941693909304601f8101849004840282018401909252818152938201939291830182828015611d785780601f10611d4d57610100808354040283529160200191611d78565b820191906000526020600020905b815481529060010190602001808311611d5b57829003601f168201915b505050918352505060048201805460408051602060026001851615610100026000190190941693909304601f8101849004840282018401909252818152938201939291830182828015611e0c5780601f10611de157610100808354040283529160200191611e0c565b820191906000526020600020905b815481529060010190602001808311611def57829003601f168201915b505050918352505060058201805460408051602060026001851615610100026000190190941693909304601f8101849004840282018401909252818152938201939291830182828015611ea05780601f10611e7557610100808354040283529160200191611ea0565b820191906000526020600020905b815481529060010190602001808311611e8357829003601f168201915b505050918352505060068201805460408051602060026001851615610100026000190190941693909304601f8101849004840282018401909252818152938201939291830182828015611f345780601f10611f0957610100808354040283529160200191611f34565b820191906000526020600020905b815481529060010190602001808311611f1757829003601f168201915b505050918352505060078201805460408051602060026001851615610100026000190190941693909304601f8101849004840282018401909252818152938201939291830182828015611fc85780601f10611f9d57610100808354040283529160200191611fc8565b820191906000526020600020905b815481529060010190602001808311611fab57829003601f168201915b50505091909252505050608081018390526000848152600160208181526040909220835181558284015180519495508594919361200a93850192910190614455565b5060408201518051612026916002840191602090910190614455565b5060608201518051612042916003840191602090910190614455565b506080820151805161205e916004840191602090910190614455565b5060a0820151805161207a916005840191602090910190614455565b5060c08201518051612096916006840191602090910190614455565b5060e082015180516120b2916007840191602090910190614455565b509050507f87e2651bc29355533cdeaebe57e6a5dc05b764bdd16e1010aef88e173edfdbc88382608001516040518083815260200180602001828103825283818151815260200191508051906020019080838360005b83811015612120578181015183820152602001612108565b50505050905090810190601f16801561214d5780820380516001836020036101000a031916815260200191505b50935050505060405180910390a1505050565b61216861440f565b600083815260016020818152604092839020835161010080820186528254825282850180548751600297821615909302600019011695909504601f81018590048502820185019096528581529094919385840193919290918301828280156122115780601f106121e657610100808354040283529160200191612211565b820191906000526020600020905b8154815290600101906020018083116121f457829003601f168201915b5050509183525050600282810180546040805160206001841615610100026000190190931694909404601f810183900483028501830190915280845293810193908301828280156122a35780601f10612278576101008083540402835291602001916122a3565b820191906000526020600020905b81548152906001019060200180831161228657829003601f168201915b505050918352505060038201805460408051602060026001851615610100026000190190941693909304601f81018490048402820184019092528181529382019392918301828280156123375780601f1061230c57610100808354040283529160200191612337565b820191906000526020600020905b81548152906001019060200180831161231a57829003601f168201915b505050918352505060048201805460408051602060026001851615610100026000190190941693909304601f81018490048402820184019092528181529382019392918301828280156123cb5780601f106123a0576101008083540402835291602001916123cb565b820191906000526020600020905b8154815290600101906020018083116123ae57829003601f168201915b505050918352505060058201805460408051602060026001851615610100026000190190941693909304601f810184900484028201840190925281815293820193929183018282801561245f5780601f106124345761010080835404028352916020019161245f565b820191906000526020600020905b81548152906001019060200180831161244257829003601f168201915b505050918352505060068201805460408051602060026001851615610100026000190190941693909304601f81018490048402820184019092528181529382019392918301828280156124f35780601f106124c8576101008083540402835291602001916124f3565b820191906000526020600020905b8154815290600101906020018083116124d657829003601f168201915b505050918352505060078201805460408051602060026001851615610100026000190190941693909304601f81018490048402820184019092528181529382019392918301828280156125875780601f1061255c57610100808354040283529160200191612587565b820191906000526020600020905b81548152906001019060200180831161256a57829003601f168201915b505050505081525050905061259a6144d3565b6000848152600260208181526040928390208351610100808201865282548252600180840180548851928116159093026000190190921695909504601f810185900485028601850190965285855290949193858401939092908301828280156126445780601f1061261957610100808354040283529160200191612644565b820191906000526020600020905b81548152906001019060200180831161262757829003601f168201915b505050918352505060028281015460208084019190915260038401805460408051601f600019610100600186161502019093169590950491820184900484028501840181528185529094019390918301828280156126e35780601f106126b8576101008083540402835291602001916126e3565b820191906000526020600020905b8154815290600101906020018083116126c657829003601f168201915b505050918352505060048201805460408051602060026001851615610100026000190190941693909304601f81018490048402820184019092528181529382019392918301828280156127775780601f1061274c57610100808354040283529160200191612777565b820191906000526020600020905b81548152906001019060200180831161275a57829003601f168201915b505050505081526020016005820154815260200160068201548152602001600782015481525050905060008390508073ffffffffffffffffffffffffffffffffffffffff1663209652556040518163ffffffff167c010000000000000000000000000000000000000000000000000000000002815260040160206040518083038186803b15801561280757600080fd5b505afa15801561281b573d6000803e3d6000fd5b505050506040513d602081101561283157600080fd5b50505050505050565b600160208181526000928352604092839020805481840180548651600296821615610100026000190190911695909504601f810185900485028601850190965285855290949193929091908301828280156128d65780601f106128ab576101008083540402835291602001916128d6565b820191906000526020600020905b8154815290600101906020018083116128b957829003601f168201915b50505060028085018054604080516020601f60001961010060018716150201909416959095049283018590048502810185019091528181529596959450909250908301828280156129685780601f1061293d57610100808354040283529160200191612968565b820191906000526020600020905b81548152906001019060200180831161294b57829003601f168201915b5050505060038301805460408051602060026001851615610100026000190190941693909304601f81018490048402820184019092528181529495949350908301828280156129f85780601f106129cd576101008083540402835291602001916129f8565b820191906000526020600020905b8154815290600101906020018083116129db57829003601f168201915b5050505060048301805460408051602060026001851615610100026000190190941693909304601f8101849004840282018401909252818152949594935090830182828015612a885780601f10612a5d57610100808354040283529160200191612a88565b820191906000526020600020905b815481529060010190602001808311612a6b57829003601f168201915b5050505060058301805460408051602060026001851615610100026000190190941693909304601f8101849004840282018401909252818152949594935090830182828015612b185780601f10612aed57610100808354040283529160200191612b18565b820191906000526020600020905b815481529060010190602001808311612afb57829003601f168201915b5050505060068301805460408051602060026001851615610100026000190190941693909304601f8101849004840282018401909252818152949594935090830182828015612ba85780601f10612b7d57610100808354040283529160200191612ba8565b820191906000526020600020905b815481529060010190602001808311612b8b57829003601f168201915b5050505060078301805460408051602060026001851615610100026000190190941693909304601f8101849004840282018401909252818152949594935090830182828015612c385780601f10612c0d57610100808354040283529160200191612c38565b820191906000526020600020905b815481529060010190602001808311612c1b57829003601f168201915b5050505050905088565b6000818152600260208181526040808420808401546005820154600683015460078401546001808601805488519281161561010002600019011699909904601f8101899004890282018901909752868152606099988a9889988b9889988998949790966003830196600490930195949193909291899190830182828015612d0a5780601f10612cdf57610100808354040283529160200191612d0a565b820191906000526020600020905b815481529060010190602001808311612ced57829003601f168201915b5050885460408051602060026001851615610100026000190190941693909304601f8101849004840282018401909252818152959c508a945092508401905082828015612d985780601f10612d6d57610100808354040283529160200191612d98565b820191906000526020600020905b815481529060010190602001808311612d7b57829003601f168201915b5050875460408051602060026001851615610100026000190190941693909304601f8101849004840282018401909252818152959a5089945092508401905082828015612e265780601f10612dfb57610100808354040283529160200191612e26565b820191906000526020600020905b815481529060010190602001808311612e0957829003601f168201915b505050505093509650965096509650965096509650919395979092949650565b600081815260016020818152604092839020808301805485516002958216156101000260001901909116859004601f81018590048502820185019096528581526060958695869586958695869586959194830193600384019360048101936005820193600683019360079093019290918991830182828015612f095780601f10612ede57610100808354040283529160200191612f09565b820191906000526020600020905b815481529060010190602001808311612eec57829003601f168201915b5050895460408051602060026001851615610100026000190190941693909304601f8101849004840282018401909252818152959c508b945092508401905082828015612f975780601f10612f6c57610100808354040283529160200191612f97565b820191906000526020600020905b815481529060010190602001808311612f7a57829003601f168201915b5050885460408051602060026001851615610100026000190190941693909304601f8101849004840282018401909252818152959b508a9450925084019050828280156130255780601f10612ffa57610100808354040283529160200191613025565b820191906000526020600020905b81548152906001019060200180831161300857829003601f168201915b5050875460408051602060026001851615610100026000190190941693909304601f8101849004840282018401909252818152959a50899450925084019050828280156130b35780601f10613088576101008083540402835291602001916130b3565b820191906000526020600020905b81548152906001019060200180831161309657829003601f168201915b5050865460408051602060026001851615610100026000190190941693909304601f8101849004840282018401909252818152959950889450925084019050828280156131415780601f1061311657610100808354040283529160200191613141565b820191906000526020600020905b81548152906001019060200180831161312457829003601f168201915b5050855460408051602060026001851615610100026000190190941693909304601f8101849004840282018401909252818152959850879450925084019050828280156131cf5780601f106131a4576101008083540402835291602001916131cf565b820191906000526020600020905b8154815290600101906020018083116131b257829003601f168201915b5050845460408051602060026001851615610100026000190190941693909304601f81018490048402820184019092528181529597508694509250840190508282801561325d5780601f106132325761010080835404028352916020019161325d565b820191906000526020600020905b81548152906001019060200180831161324057829003601f168201915b505050505090509650965096509650965096509650919395979092949650565b60008054600101905561328e61440f565b6000805480835260208084018b815260408086018c9052606086018b9052608086018a905260a0860189905260c0860188905260e0860187905292845260018083529290932084518155925180518594936132ee93908501920190614455565b506040820151805161330a916002840191602090910190614455565b5060608201518051613326916003840191602090910190614455565b5060808201518051613342916004840191602090910190614455565b5060a0820151805161335e916005840191602090910190614455565b5060c0820151805161337a916006840191602090910190614455565b5060e08201518051613396916007840191602090910190614455565b509050507f885fcc95c75581ffe21d0835a75217dbc27eeac68b459842550369ce95abae4760005489898989898989604051808981526020018060200180602001806020018060200180602001806020018060200188810388528f818151815260200191508051906020019080838360005b83811015613420578181015183820152602001613408565b50505050905090810190601f16801561344d5780820380516001836020036101000a031916815260200191505b5088810387528e818151815260200191508051906020019080838360005b8381101561348357818101518382015260200161346b565b50505050905090810190601f1680156134b05780820380516001836020036101000a031916815260200191505b5088810386528d5181528d516020918201918f019080838360005b838110156134e35781810151838201526020016134cb565b50505050905090810190601f1680156135105780820380516001836020036101000a031916815260200191505b5088810385528c5181528c516020918201918e019080838360005b8381101561354357818101518382015260200161352b565b50505050905090810190601f1680156135705780820380516001836020036101000a031916815260200191505b5088810384528b5181528b516020918201918d019080838360005b838110156135a357818101518382015260200161358b565b50505050905090810190601f1680156135d05780820380516001836020036101000a031916815260200191505b5088810383528a5181528a516020918201918c019080838360005b838110156136035781810151838201526020016135eb565b50505050905090810190601f1680156136305780820380516001836020036101000a031916815260200191505b5088810382528951815289516020918201918b019080838360005b8381101561366357818101518382015260200161364b565b50505050905090810190601f1680156136905780820380516001836020036101000a031916815260200191505b509f5050505050505050505050505050505060405180910390a15050505050505050565b30315b90565b60005481565b6136c86144d3565b6000805480835260208084018b815260408086018c9052606086018b9052608086018a905260a0860189905260c0860188905260e08601879052928452600282529190922083518155905180518493613728926001850192910190614455565b50604082015160028201556060820151805161374e916003840191602090910190614455565b506080820151805161376a916004840191602090910190614455565b5060a0820151816005015560c0820151816006015560e082015181600701559050507f5ee338db78855874b54df61d10b711be7658a86fb1354b2a065dd122d9b1dce6600054898989898989896040518089815260200180602001888152602001806020018060200187815260200186815260200185815260200184810384528b818151815260200191508051906020019080838360005b8381101561381a578181015183820152602001613802565b50505050905090810190601f1680156138475780820380516001836020036101000a031916815260200191505b5084810383528951815289516020918201918b019080838360005b8381101561387a578181015183820152602001613862565b50505050905090810190601f1680156138a75780820380516001836020036101000a031916815260200191505b5084810382528851815288516020918201918a019080838360005b838110156138da5781810151838201526020016138c2565b50505050905090810190601f1680156139075780820380516001836020036101000a031916815260200191505b509b50505050505050505050505060405180910390a15050505050505050565b61392f61440f565b600089815260016020818152604092839020835161010080820186528254825282850180548751600297821615909302600019011695909504601f81018590048502820185019096528581529094919385840193919290918301828280156139d85780601f106139ad576101008083540402835291602001916139d8565b820191906000526020600020905b8154815290600101906020018083116139bb57829003601f168201915b5050509183525050600282810180546040805160206001841615610100026000190190931694909404601f81018390048302850183019091528084529381019390830182828015613a6a5780601f10613a3f57610100808354040283529160200191613a6a565b820191906000526020600020905b815481529060010190602001808311613a4d57829003601f168201915b505050918352505060038201805460408051602060026001851615610100026000190190941693909304601f8101849004840282018401909252818152938201939291830182828015613afe5780601f10613ad357610100808354040283529160200191613afe565b820191906000526020600020905b815481529060010190602001808311613ae157829003601f168201915b505050918352505060048201805460408051602060026001851615610100026000190190941693909304601f8101849004840282018401909252818152938201939291830182828015613b925780601f10613b6757610100808354040283529160200191613b92565b820191906000526020600020905b815481529060010190602001808311613b7557829003601f168201915b505050918352505060058201805460408051602060026001851615610100026000190190941693909304601f8101849004840282018401909252818152938201939291830182828015613c265780601f10613bfb57610100808354040283529160200191613c26565b820191906000526020600020905b815481529060010190602001808311613c0957829003601f168201915b505050918352505060068201805460408051602060026001851615610100026000190190941693909304601f8101849004840282018401909252818152938201939291830182828015613cba5780601f10613c8f57610100808354040283529160200191613cba565b820191906000526020600020905b815481529060010190602001808311613c9d57829003601f168201915b505050918352505060078201805460408051602060026001851615610100026000190190941693909304601f8101849004840282018401909252818152938201939291830182828015613d4e5780601f10613d2357610100808354040283529160200191613d4e565b820191906000526020600020905b815481529060010190602001808311613d3157829003601f168201915b50505091909252505050608081018990526020810188905260a0810187905260c0810186905260e081018590529050613d856144d3565b60008a8152600260208181526040928390208351610100808201865282548252600180840180548851928116159093026000190190921695909504601f81018590048502860185019096528585529094919385840193909290830182828015613e2f5780601f10613e0457610100808354040283529160200191613e2f565b820191906000526020600020905b815481529060010190602001808311613e1257829003601f168201915b505050918352505060028281015460208084019190915260038401805460408051601f60001961010060018616150201909316959095049182018490048402850184018152818552909401939091830182828015613ece5780601f10613ea357610100808354040283529160200191613ece565b820191906000526020600020905b815481529060010190602001808311613eb157829003601f168201915b505050918352505060048201805460408051602060026001851615610100026000190190941693909304601f8101849004840282018401909252818152938201939291830182828015613f625780601f10613f3757610100808354040283529160200191613f62565b820191906000526020600020905b815481529060010190602001808311613f4557829003601f168201915b50505050508152602001600582015481526020016006820154815260200160078201548152505090508381602001819052508281604001818152505081600160008c8152602001908152602001600020600082015181600001556020820151816001019080519060200190613fd8929190614455565b5060408201518051613ff4916002840191602090910190614455565b5060608201518051614010916003840191602090910190614455565b506080820151805161402c916004840191602090910190614455565b5060a08201518051614048916005840191602090910190614455565b5060c08201518051614064916006840191602090910190614455565b5060e08201518051614080916007840191602090910190614455565b50505060008a81526002602090815260409091208251815581830151805184936140b1926001850192910190614455565b5060408201516002820155606082015180516140d7916003840191602090910190614455565b50608082015180516140f3916004840191602090910190614455565b5060a0820151816005015560c0820151816006015560e082015181600701559050507f375787570f60317a305e9eb4d1d6a0301d08458e545c12ca0bd7cdd22370fa06826080015183602001518460a001518560c001518660e00151866020015187604001516040518080602001806020018060200180602001806020018060200188815260200187810387528e818151815260200191508051906020019080838360005b838110156141b0578181015183820152602001614198565b50505050905090810190601f1680156141dd5780820380516001836020036101000a031916815260200191505b5087810386528d5181528d516020918201918f019080838360005b838110156142105781810151838201526020016141f8565b50505050905090810190601f16801561423d5780820380516001836020036101000a031916815260200191505b5087810385528c5181528c516020918201918e019080838360005b83811015614270578181015183820152602001614258565b50505050905090810190601f16801561429d5780820380516001836020036101000a031916815260200191505b5087810384528b5181528b516020918201918d019080838360005b838110156142d05781810151838201526020016142b8565b50505050905090810190601f1680156142fd5780820380516001836020036101000a031916815260200191505b5087810383528a5181528a516020918201918c019080838360005b83811015614330578181015183820152602001614318565b50505050905090810190601f16801561435d5780820380516001836020036101000a031916815260200191505b5087810382528951815289516020918201918b019080838360005b83811015614390578181015183820152602001614378565b50505050905090810190601f1680156143bd5780820380516001836020036101000a031916815260200191505b509d505050505050505050505050505060405180910390a150505050505050505050565b6143f08e8e8e8e8e8e8e61327d565b6143ff878787878787876136c0565b5050505050505050505050505050565b6101006040519081016040528060008152602001606081526020016060815260200160608152602001606081526020016060815260200160608152602001606081525090565b828054600181600116156101000203166002900490600052602060002090601f016020900481019282601f1061449657805160ff19168380011785556144c3565b828001600101855582156144c3579182015b828111156144c35782518255916020019190600101906144a8565b506144cf929150614519565b5090565b6101006040519081016040528060008152602001606081526020016000815260200160608152602001606081526020016000815260200160008152602001600081525090565b6136b791905b808211156144cf576000815560010161451f56fea165627a7a72305820ff2049704788d3141f68d8cdb709b2ad8fa3e726b99e16f68513feb4104e574d0029",
  "source": "// SPDX-License-Identifier: MIT\r\npragma solidity >=0.4.22 <0.9.0;\r\n\r\ncontract ContractSC {\r\n    uint256 public contractCount = 0;\r\n\r\n    struct Contract {\r\n        uint256 contract_id;\r\n        string contract_type;\r\n        string contract_name;\r\n        string job_title;\r\n        string status;\r\n        string scope_of_work;\r\n        string start_date;\r\n        string end_date;\r\n    }\r\n\r\n    struct ContractDetails {\r\n        uint256 contract_id;\r\n        string currency;\r\n        int256 payment_rate;\r\n        string payment_frequency;\r\n        string payment_due;\r\n        uint256 employer_id;\r\n        uint256 contractor_id;\r\n        uint256 proposal_id;\r\n    }\r\n\r\n    event ChangedContractStatus(uint256 contract_id, string status);\r\n\r\n    mapping(uint256 => Contract) public contracts;\r\n    mapping(uint256 => ContractDetails) public contracts_details;\r\n\r\n    event ContractCreated(\r\n        uint256 contract_id,\r\n        string contract_type,\r\n        string contract_name,\r\n        string job_title,\r\n        string status,\r\n        string scope_of_work,\r\n        string start_date,\r\n        string end_date\r\n    );\r\n\r\n    event ContractDetailsCreated(\r\n        uint256 contract_id,\r\n        string currency,\r\n        int256 payment_rate,\r\n        string payment_frequency,\r\n        string payment_due,\r\n        uint256 employer_id,\r\n        uint256 contractor_id,\r\n        uint256 proposal_id\r\n    );\r\n\r\n    event ContractUpdated(\r\n        string status,\r\n        string contract_type,\r\n        string scope_of_work,\r\n        string start_date,\r\n        string end_date,\r\n        string currency,\r\n        int256 payment_rate\r\n    );\r\n\r\n    constructor() public {\r\n        createContract(\r\n            \"Contractor\",\r\n            \"Test Contract\",\r\n            \"Backend Developer\",\r\n            \"Both parties agreed\",\r\n            \"5 endpoints\",\r\n            \"15/05/2022\",\r\n            \"20/05/2022\",\r\n            \"COP\",\r\n            1800000,\r\n            \"Monthly\",\r\n            \"30\",\r\n            1,\r\n            1,\r\n            1\r\n        );\r\n    }\r\n\r\n    function createContract(\r\n        string memory contract_type,\r\n        string memory contract_name,\r\n        string memory job_title,\r\n        string memory status,\r\n        string memory scope_of_work,\r\n        string memory start_date,\r\n        string memory end_date,\r\n        string memory currency,\r\n        int256 payment_rate,\r\n        string memory payment_frequency,\r\n        string memory payment_due,\r\n        uint256 employer_id,\r\n        uint256 contractor_id,\r\n        uint256 proposal_id\r\n    ) public {\r\n        addContract(\r\n            contract_type,\r\n            contract_name,\r\n            job_title,\r\n            status,\r\n            scope_of_work,\r\n            start_date,\r\n            end_date\r\n        );\r\n        addContractDetails(\r\n            currency,\r\n            payment_rate,\r\n            payment_frequency,\r\n            payment_due,\r\n            employer_id,\r\n            contractor_id,\r\n            proposal_id\r\n        );\r\n    }\r\n\r\n    function addContract(\r\n        string memory contract_type,\r\n        string memory contract_name,\r\n        string memory job_title,\r\n        string memory status,\r\n        string memory scope_of_work,\r\n        string memory start_date,\r\n        string memory end_date\r\n    ) public {\r\n        contractCount++;\r\n        Contract memory contractInfo;\r\n\r\n        contractInfo.contract_id = contractCount;\r\n        contractInfo.contract_type = contract_type;\r\n        contractInfo.contract_name = contract_name;\r\n        contractInfo.job_title = job_title;\r\n        contractInfo.status = status;\r\n        contractInfo.scope_of_work = scope_of_work;\r\n        contractInfo.start_date = start_date;\r\n        contractInfo.end_date = end_date;\r\n\r\n        contracts[contractCount] = contractInfo;\r\n        emit ContractCreated(\r\n            contractCount,\r\n            contract_type,\r\n            contract_name,\r\n            job_title,\r\n            status,\r\n            scope_of_work,\r\n            start_date,\r\n            end_date\r\n        );\r\n    }\r\n\r\n    function addContractDetails(\r\n        string memory currency,\r\n        int256 payment_rate,\r\n        string memory payment_frequency,\r\n        string memory payment_due,\r\n        uint256 employer_id,\r\n        uint256 contractor_id,\r\n        uint256 proposal_id\r\n    ) public {\r\n        ContractDetails memory contractDetails;\r\n\r\n        contractDetails.contract_id = contractCount;\r\n        contractDetails.currency = currency;\r\n        contractDetails.payment_rate = payment_rate;\r\n        contractDetails.payment_frequency = payment_frequency;\r\n        contractDetails.payment_due = payment_due;\r\n        contractDetails.employer_id = employer_id;\r\n        contractDetails.contractor_id = contractor_id;\r\n        contractDetails.proposal_id = proposal_id;\r\n\r\n        contracts_details[contractCount] = contractDetails;\r\n        emit ContractDetailsCreated(\r\n            contractCount,\r\n            currency,\r\n            payment_rate,\r\n            payment_frequency,\r\n            payment_due,\r\n            employer_id,\r\n            contractor_id,\r\n            proposal_id\r\n        );\r\n    }\r\n\r\n    function pay(uint256 _id, address addr) public {\r\n        Contract memory _contract = contracts[_id];\r\n        ContractDetails memory _contract_details = contracts_details[_id];\r\n\r\n        TransactionSC transaction = TransactionSC(addr);\r\n        // transaction.createTransaction(\r\n        //     \"TEST1\",\r\n        //     \"15/05/2022TEST2\",\r\n        //     \"Local Bank2\",\r\n        //     400,\r\n        //     1,\r\n        //     \"Success3\"\r\n        // );\r\n        transaction.getValue();\r\n    }\r\n\r\n    function setContractStatus(uint256 _id, string memory status) public {\r\n        Contract memory _contract = contracts[_id];\r\n        _contract.status = status;\r\n        contracts[_id] = _contract;\r\n        emit ChangedContractStatus(_id, _contract.status);\r\n    }\r\n\r\n    function updateContract(\r\n        uint256 _id,\r\n        string memory status,\r\n        string memory contract_type,\r\n        string memory scope_of_work,\r\n        string memory start_date,\r\n        string memory end_date,\r\n        string memory currency,\r\n        int256 payment_rate\r\n    ) public {\r\n        Contract memory _contract = contracts[_id];\r\n\r\n        // Status Validation\r\n\r\n        _contract.status = status;\r\n        _contract.contract_type = contract_type;\r\n        _contract.scope_of_work = scope_of_work;\r\n        _contract.start_date = start_date;\r\n        _contract.end_date = end_date;\r\n\r\n        ContractDetails memory _contract_detail = contracts_details[_id];\r\n        _contract_detail.currency = currency;\r\n        _contract_detail.payment_rate = payment_rate;\r\n\r\n        contracts[_id] = _contract;\r\n        contracts_details[_id] = _contract_detail;\r\n\r\n        emit ContractUpdated(\r\n            _contract.status,\r\n            _contract.contract_type,\r\n            _contract.scope_of_work,\r\n            _contract.start_date,\r\n            _contract.end_date,\r\n            _contract_detail.currency,\r\n            _contract_detail.payment_rate\r\n        );\r\n    }\r\n\r\n    function getContract(uint256 index)\r\n        public\r\n        view\r\n        returns (\r\n            string memory,\r\n            string memory,\r\n            string memory,\r\n            string memory,\r\n            string memory,\r\n            string memory,\r\n            string memory\r\n        )\r\n    {\r\n        return (\r\n            contracts[index].contract_type,\r\n            contracts[index].contract_name,\r\n            contracts[index].job_title,\r\n            contracts[index].status,\r\n            contracts[index].scope_of_work,\r\n            contracts[index].start_date,\r\n            contracts[index].end_date\r\n        );\r\n    }\r\n\r\n    function getContractDetails(uint256 index)\r\n        public\r\n        view\r\n        returns (\r\n            string memory,\r\n            int256,\r\n            string memory,\r\n            string memory,\r\n            uint256,\r\n            uint256,\r\n            uint256\r\n        )\r\n    {\r\n        return (\r\n            contracts_details[index].currency,\r\n            contracts_details[index].payment_rate,\r\n            contracts_details[index].payment_frequency,\r\n            contracts_details[index].payment_due,\r\n            contracts_details[index].employer_id,\r\n            contracts_details[index].contractor_id,\r\n            contracts_details[index].proposal_id\r\n        );\r\n    }\r\n\r\n    // funcion para depositar ether en el smart contract\r\n    function() external payable {}\r\n\r\n    // funcion para mostrar cuanto ether tiene este smart contract\r\n    function showBalance() external view returns (uint256) {\r\n        return address(this).balance;\r\n    }\r\n}\r\n\r\ncontract TransactionSC {\r\n    // function createTransaction(\r\n    //     string memory withdrawal_date,\r\n    //     string memory estimated_arrival,\r\n    //     string memory method,\r\n    //     int256 amount,\r\n    //     uint256 contract_id,\r\n    //     string memory status\r\n    // ) public;\r\n    function getValue() external view returns (uint256);\r\n}\r\n",
  "sourcePath": "C:/Users/sesan/Desktop/Proyecto Final/SmartDeal Solidity/contracts/Contract.sol",
  "compiler": {
    "name": "solc",
    "version": "0.5.0+commit.1d4f565a.Emscripten.clang"
  },
  "schemaVersion": "3.0.1",
  "updatedAt": "2022-05-23T04:22:40.853Z",
  "devdoc": {
    "methods": {}
  },
  "userdoc": {
    "methods": {}
  }
}