{
  "contractName": "Contract",
  "abi": [
    {
      "constant": true,
      "inputs": [
        {
          "name": "",
          "type": "uint256"
        }
      ],
      "name": "contracts_details",
      "outputs": [
        {
          "name": "contract_id",
          "type": "uint256"
        },
        {
          "name": "currency",
          "type": "string"
        },
        {
          "name": "payment_rate",
          "type": "int256"
        },
        {
          "name": "payment_frequency",
          "type": "string"
        },
        {
          "name": "payment_due",
          "type": "string"
        },
        {
          "name": "employer_id",
          "type": "uint256"
        },
        {
          "name": "contractor_id",
          "type": "uint256"
        },
        {
          "name": "proposal_id",
          "type": "int256"
        }
      ],
      "payable": false,
      "stateMutability": "view",
      "type": "function",
      "signature": "0x1c87fb21"
    },
    {
      "constant": true,
      "inputs": [
        {
          "name": "",
          "type": "uint256"
        }
      ],
      "name": "contracts",
      "outputs": [
        {
          "name": "contract_id",
          "type": "uint256"
        },
        {
          "name": "contract_type",
          "type": "string"
        },
        {
          "name": "contract_name",
          "type": "string"
        },
        {
          "name": "job_title",
          "type": "string"
        },
        {
          "name": "status",
          "type": "string"
        },
        {
          "name": "scope_of_work",
          "type": "string"
        },
        {
          "name": "start_date",
          "type": "string"
        },
        {
          "name": "end_date",
          "type": "string"
        }
      ],
      "payable": false,
      "stateMutability": "view",
      "type": "function",
      "signature": "0x474da79a"
    },
    {
      "constant": true,
      "inputs": [],
      "name": "contractCount",
      "outputs": [
        {
          "name": "",
          "type": "uint256"
        }
      ],
      "payable": false,
      "stateMutability": "view",
      "type": "function",
      "signature": "0x8736381a"
    },
    {
      "inputs": [],
      "payable": false,
      "stateMutability": "nonpayable",
      "type": "constructor",
      "signature": "constructor"
    },
    {
      "payable": true,
      "stateMutability": "payable",
      "type": "fallback"
    },
    {
      "anonymous": false,
      "inputs": [
        {
          "indexed": false,
          "name": "contract_id",
          "type": "uint256"
        }
      ],
      "name": "ContractCompleted",
      "type": "event",
      "signature": "0x6aafa2babf7b7b7142ff5c7ff71f2b5f78e2243167a26d6b8a7f70936e76923e"
    },
    {
      "anonymous": false,
      "inputs": [
        {
          "indexed": false,
          "name": "contract_id",
          "type": "uint256"
        },
        {
          "indexed": false,
          "name": "contract_type",
          "type": "string"
        },
        {
          "indexed": false,
          "name": "contract_name",
          "type": "string"
        },
        {
          "indexed": false,
          "name": "job_title",
          "type": "string"
        },
        {
          "indexed": false,
          "name": "status",
          "type": "string"
        },
        {
          "indexed": false,
          "name": "scope_of_work",
          "type": "string"
        },
        {
          "indexed": false,
          "name": "start_date",
          "type": "string"
        },
        {
          "indexed": false,
          "name": "end_date",
          "type": "string"
        }
      ],
      "name": "ContractCreated",
      "type": "event",
      "signature": "0x885fcc95c75581ffe21d0835a75217dbc27eeac68b459842550369ce95abae47"
    },
    {
      "anonymous": false,
      "inputs": [
        {
          "indexed": false,
          "name": "contract_id",
          "type": "uint256"
        },
        {
          "indexed": false,
          "name": "currency",
          "type": "string"
        },
        {
          "indexed": false,
          "name": "payment_rate",
          "type": "int256"
        },
        {
          "indexed": false,
          "name": "payment_frequency",
          "type": "string"
        },
        {
          "indexed": false,
          "name": "payment_due",
          "type": "string"
        },
        {
          "indexed": false,
          "name": "employer_id",
          "type": "uint256"
        },
        {
          "indexed": false,
          "name": "contractor_id",
          "type": "uint256"
        },
        {
          "indexed": false,
          "name": "proposal_id",
          "type": "int256"
        }
      ],
      "name": "ContractDetailsCreated",
      "type": "event",
      "signature": "0xc1c39a8949cbcdf232e69dcc4e28e89f8b96820d749b2d6ce769e8bea6340245"
    },
    {
      "constant": false,
      "inputs": [
        {
          "name": "contract_type",
          "type": "string"
        },
        {
          "name": "contract_name",
          "type": "string"
        },
        {
          "name": "job_title",
          "type": "string"
        }
      ],
      "name": "createContract",
      "outputs": [],
      "payable": false,
      "stateMutability": "nonpayable",
      "type": "function",
      "signature": "0xde2143d8"
    },
    {
      "constant": true,
      "inputs": [],
      "name": "showBalance",
      "outputs": [
        {
          "name": "",
          "type": "uint256"
        }
      ],
      "payable": false,
      "stateMutability": "view",
      "type": "function",
      "signature": "0x81b2d07b"
    }
  ],
  "bytecode": "0x60806040526000805534801561001457600080fd5b50611278806100246000396000f3fe60806040526004361061006c5763ffffffff7c01000000000000000000000000000000000000000000000000000000006000350416631c87fb21811461006e578063474da79a146101ff57806381b2d07b1461050f5780638736381a14610536578063de2143d81461054b575b005b34801561007a57600080fd5b506100986004803603602081101561009157600080fd5b503561070c565b6040518089815260200180602001888152602001806020018060200187815260200186815260200185815260200184810384528b818151815260200191508051906020019080838360005b838110156100fb5781810151838201526020016100e3565b50505050905090810190601f1680156101285780820380516001836020036101000a031916815260200191505b5084810383528951815289516020918201918b019080838360005b8381101561015b578181015183820152602001610143565b50505050905090810190601f1680156101885780820380516001836020036101000a031916815260200191505b5084810382528851815288516020918201918a019080838360005b838110156101bb5781810151838201526020016101a3565b50505050905090810190601f1680156101e85780820380516001836020036101000a031916815260200191505b509b50505050505050505050505060405180910390f35b34801561020b57600080fd5b506102296004803603602081101561022257600080fd5b50356108eb565b604051808981526020018060200180602001806020018060200180602001806020018060200188810388528f818151815260200191508051906020019080838360005b8381101561028457818101518382015260200161026c565b50505050905090810190601f1680156102b15780820380516001836020036101000a031916815260200191505b5088810387528e818151815260200191508051906020019080838360005b838110156102e75781810151838201526020016102cf565b50505050905090810190601f1680156103145780820380516001836020036101000a031916815260200191505b5088810386528d5181528d516020918201918f019080838360005b8381101561034757818101518382015260200161032f565b50505050905090810190601f1680156103745780820380516001836020036101000a031916815260200191505b5088810385528c5181528c516020918201918e019080838360005b838110156103a757818101518382015260200161038f565b50505050905090810190601f1680156103d45780820380516001836020036101000a031916815260200191505b5088810384528b5181528b516020918201918d019080838360005b838110156104075781810151838201526020016103ef565b50505050905090810190601f1680156104345780820380516001836020036101000a031916815260200191505b5088810383528a5181528a516020918201918c019080838360005b8381101561046757818101518382015260200161044f565b50505050905090810190601f1680156104945780820380516001836020036101000a031916815260200191505b5088810382528951815289516020918201918b019080838360005b838110156104c75781810151838201526020016104af565b50505050905090810190601f1680156104f45780820380516001836020036101000a031916815260200191505b509f5050505050505050505050505050505060405180910390f35b34801561051b57600080fd5b50610524610cf3565b60408051918252519081900360200190f35b34801561054257600080fd5b50610524610cf9565b34801561055757600080fd5b5061006c6004803603606081101561056e57600080fd5b81019060208101813564010000000081111561058957600080fd5b82018360208201111561059b57600080fd5b803590602001918460018302840111640100000000831117156105bd57600080fd5b91908080601f016020809104026020016040519081016040528093929190818152602001838380828437600092019190915250929594936020810193503591505064010000000081111561061057600080fd5b82018360208201111561062257600080fd5b8035906020019184600183028401116401000000008311171561064457600080fd5b91908080601f016020809104026020016040519081016040528093929190818152602001838380828437600092019190915250929594936020810193503591505064010000000081111561069757600080fd5b8201836020820111156106a957600080fd5b803590602001918460018302840111640100000000831117156106cb57600080fd5b91908080601f016020809104026020016040519081016040528093929190818152602001838380828437600092019190915250929550610cff945050505050565b60026020818152600092835260409283902080546001808301805487519281161561010002600019011695909504601f81018590048502820185019096528581529094919390929091908301828280156107a75780601f1061077c576101008083540402835291602001916107a7565b820191906000526020600020905b81548152906001019060200180831161078a57829003601f168201915b505050506002838101546003850180546040805160206001841615610100026000190190931695909504601f81018390048302860183019091528085529596929592945090919083018282801561083f5780601f106108145761010080835404028352916020019161083f565b820191906000526020600020905b81548152906001019060200180831161082257829003601f168201915b5050505060048301805460408051602060026001851615610100026000190190941693909304601f81018490048402820184019092528181529495949350908301828280156108cf5780601f106108a4576101008083540402835291602001916108cf565b820191906000526020600020905b8154815290600101906020018083116108b257829003601f168201915b5050505050908060050154908060060154908060070154905088565b600160208181526000928352604092839020805481840180548651600296821615610100026000190190911695909504601f810185900485028601850190965285855290949193929091908301828280156109875780601f1061095c57610100808354040283529160200191610987565b820191906000526020600020905b81548152906001019060200180831161096a57829003601f168201915b50505060028085018054604080516020601f6000196101006001871615020190941695909504928301859004850281018501909152818152959695945090925090830182828015610a195780601f106109ee57610100808354040283529160200191610a19565b820191906000526020600020905b8154815290600101906020018083116109fc57829003601f168201915b5050505060038301805460408051602060026001851615610100026000190190941693909304601f8101849004840282018401909252818152949594935090830182828015610aa95780601f10610a7e57610100808354040283529160200191610aa9565b820191906000526020600020905b815481529060010190602001808311610a8c57829003601f168201915b5050505060048301805460408051602060026001851615610100026000190190941693909304601f8101849004840282018401909252818152949594935090830182828015610b395780601f10610b0e57610100808354040283529160200191610b39565b820191906000526020600020905b815481529060010190602001808311610b1c57829003601f168201915b5050505060058301805460408051602060026001851615610100026000190190941693909304601f8101849004840282018401909252818152949594935090830182828015610bc95780601f10610b9e57610100808354040283529160200191610bc9565b820191906000526020600020905b815481529060010190602001808311610bac57829003601f168201915b5050505060068301805460408051602060026001851615610100026000190190941693909304601f8101849004840282018401909252818152949594935090830182828015610c595780601f10610c2e57610100808354040283529160200191610c59565b820191906000526020600020905b815481529060010190602001808311610c3c57829003601f168201915b5050505060078301805460408051602060026001851615610100026000190190941693909304601f8101849004840282018401909252818152949594935090830182828015610ce95780601f10610cbe57610100808354040283529160200191610ce9565b820191906000526020600020905b815481529060010190602001808311610ccc57829003601f168201915b5050505050905088565b30315b90565b60005481565b600080546001019055610d10611128565b610d1861116e565b60008054808452602080850188815260408087018990526060808801899052815180850183528681526080808a01919091528251808601845287815260a0808b01919091528351808701855288815260c0808c01919091528451808801865289815260e0808d0191909152888b52855180890187528a81528b89015260018b87018190528651808a0188528b8152958c0195909552855180890187528a8152938b0193909352908901839052880182905287018190529385528383529093208551815592518051869493610df1939085019201906111b4565b5060408201518051610e0d9160028401916020909101906111b4565b5060608201518051610e299160038401916020909101906111b4565b5060808201518051610e459160048401916020909101906111b4565b5060a08201518051610e619160058401916020909101906111b4565b5060c08201518051610e7d9160068401916020909101906111b4565b5060e08201518051610e999160078401916020909101906111b4565b5050600080548152600260209081526040909120835181558184015180518594509192610ece926001850192909101906111b4565b506040820151600282015560608201518051610ef49160038401916020909101906111b4565b5060808201518051610f109160048401916020909101906111b4565b5060a0820151816005015560c0820151816006015560e082015181600701559050507f885fcc95c75581ffe21d0835a75217dbc27eeac68b459842550369ce95abae476000548686604051808481526020018060200180602001806020018060200180602001806020018060200188810388528a818151815260200191508051906020019080838360005b83811015610fb3578181015183820152602001610f9b565b50505050905090810190601f168015610fe05780820380516001836020036101000a031916815260200191505b5088810387528951815289516020918201918b019080838360005b83811015611013578181015183820152602001610ffb565b50505050905090810190601f1680156110405780820380516001836020036101000a031916815260200191505b508881038652600081526020016020018881038552600081526020016020018881038452600081526020016020018881038352600081526020016020018881038252600081526020016020019a505050505050505050505060405180910390a16000805460408051918252600182820181905260a0830181905260c0830181905260e08301526101006020830181905282018390526101406060830181905282018390526101806080830181905282019290925290517fc1c39a8949cbcdf232e69dcc4e28e89f8b96820d749b2d6ce769e8bea6340245918190036101c00190a15050505050565b6101006040519081016040528060008152602001606081526020016060815260200160608152602001606081526020016060815260200160608152602001606081525090565b6101006040519081016040528060008152602001606081526020016000815260200160608152602001606081526020016000815260200160008152602001600081525090565b828054600181600116156101000203166002900490600052602060002090601f016020900481019282601f106111f557805160ff1916838001178555611222565b82800160010185558215611222579182015b82811115611222578251825591602001919060010190611207565b5061122e929150611232565b5090565b610cf691905b8082111561122e576000815560010161123856fea165627a7a723058200ee44a798375bd0290c8c5ebefee5cd6ed347bf00e015796727ce0db8366908f0029",
  "source": "// SPDX-License-Identifier: MIT\r\npragma solidity >=0.4.22 <0.9.0;\r\n\r\ncontract Contract {\r\n    // el keyword public lo que hace es que nos deja leer contractCount como si fuera el llamado de una funcion\r\n    uint256 public contractCount = 0;\r\n\r\n    struct Contract {\r\n      uint256 contract_id;\r\n      string contract_type;\r\n      string contract_name;\r\n      string job_title;\r\n      string status;\r\n      string scope_of_work;\r\n      string start_date;\r\n      string end_date;\r\n    }\r\n\r\n    struct ContractDetails {\r\n      uint256 contract_id;\r\n      string currency;\r\n      int256 payment_rate;\r\n      string payment_frequency;\r\n      string payment_due;\r\n      uint256 employer_id;\r\n      uint256 contractor_id;\r\n      int256 proposal_id;\r\n    }\r\n\r\n    event ContractCompleted(uint256 contract_id);\r\n\r\n    // creamos la estructura de datos para guardar nuestros tasks, este funciona como hash map\r\n    mapping(uint256 => Contract) public contracts;\r\n    mapping(uint256 => ContractDetails) public contracts_details;\r\n\r\n    event ContractCreated(\r\n        uint256 contract_id,\r\n        string contract_type,\r\n        string contract_name,\r\n        string job_title,\r\n        string status,\r\n        string scope_of_work,\r\n        string start_date,\r\n        string end_date\r\n      );\r\n\r\n    event ContractDetailsCreated(\r\n        uint256 contract_id,\r\n        string currency,\r\n        int256 payment_rate,\r\n        string payment_frequency,\r\n        string payment_due,\r\n        uint256 employer_id,\r\n        uint256 contractor_id,\r\n        int256 proposal_id\r\n    );\r\n\r\n    constructor() public {\r\n        // createContract(\"Contractor\", \"Test Contract\", \"Backend Developer\", \"Active\", \"Create 5 endpoints\", \"14/05/2022\", \"11/06/2022\");\r\n    }\r\n\r\n    function createContract(\r\n      string memory contract_type,\r\n      string memory contract_name,\r\n      string memory job_title\r\n      // string memory status,\r\n      // string memory scope_of_work,\r\n      // string memory start_date,\r\n      // string memory end_date\r\n      ) public {\r\n        contractCount++;\r\n        Contract memory contractInfo;\r\n        ContractDetails memory contractDetails;\r\n\r\n        contractInfo.contract_id = contractCount;\r\n        contractInfo.contract_type = contract_type;\r\n        contractInfo.contract_name = contract_name;\r\n        contractInfo.job_title = job_title;\r\n        contractInfo.status = \"\";\r\n        contractInfo.scope_of_work = \"\";\r\n        contractInfo.start_date = \"\";\r\n        contractInfo.end_date = \"\";\r\n\r\n        contractDetails.contract_id = contractCount;\r\n        contractDetails.currency = \"\";\r\n        contractDetails.payment_rate = 1;\r\n        contractDetails.payment_frequency = \"\";\r\n        contractDetails.payment_due = \"\";\r\n        contractDetails.employer_id = 1;\r\n        contractDetails.contractor_id = 1;\r\n        contractDetails.proposal_id = 1;\r\n\r\n        contracts[contractCount] = contractInfo;\r\n        contracts_details[contractCount]= contractDetails;\r\n        emit ContractCreated(contractCount, contract_type, contract_name, \"\" ,\"\",\"\",\"\",\"\");\r\n        emit ContractDetailsCreated(contractCount, \"\", 1, \"\" ,\"\",1,1,1);\r\n    }\r\n\r\n    // funcion para para marcar como completa una tarea\r\n    // function markCompleted(uint256 _id) public {\r\n    //   Contract memory _task = tasks[_id];\r\n    //   _task.completed = !_task.completed;\r\n    //   tasks[_id] = _task;\r\n    //   emit ContractCompleted(_id, _task.completed);\r\n    // }\r\n\r\n    // funcion para enviar ether del contrato hacia una direccion\r\n    // function sendEther(address payable recipient, uint reward) external {\r\n    //   uint money = reward * 1 ether;\r\n    //   recipient.transfer(money);\r\n    // }\r\n\r\n    // funcion para obtener el valor de la recompensa de cada task\r\n    // function getTaskReward(uint256 _id) external view returns(uint){\r\n    //   Task memory _task = tasks[_id];\r\n    //   return _task.reward;\r\n    // }\r\n\r\n    // funcion para depositar ether en el smart contract\r\n    function() external payable {}\r\n\r\n    // funcion para mostrar cuanto ether tiene este smart contract\r\n    function showBalance() external view returns (uint256) {\r\n        return address(this).balance;\r\n    }\r\n}\r\n",
  "sourcePath": "C:/Users/sesan/Desktop/Blockchain/contracts/Contract.sol",
  "compiler": {
    "name": "solc",
    "version": "0.5.0+commit.1d4f565a.Emscripten.clang"
  },
  "schemaVersion": "3.0.1",
  "updatedAt": "2022-05-14T23:06:19.813Z",
  "devdoc": {
    "methods": {}
  },
  "userdoc": {
    "methods": {}
  }
}